:100000000C948A000C9416030C9470030C94A700B3
:100010000C94A7000C94A7000C94A7000C94A700C4
:100020000C94A7000C94A7000C94A7000C948B08C8
:100030000C9433090C94A7000C94A7000C94A7000F
:100040000C94A7000C94A7000C94F1020C94D60B0E
:100050000C94F10B0C94C80B0C94A7000C94A70003
:100060000C94A7000C94A7000C94A7000C94A70074
:100070000C94A7001C034C00580052006F00620053
:100080006F007400690063007300200041006E007F
:100090007400770065006900670068007400200044
:1000A000450053004300000018034C005800520064
:1000B0006F0062006F00740069006300730000004D
:1000C0000403090409023E00020100C032090400D1
:1000D00000010202010005240010010424020605AB
:1000E00024060001070582030800FF09040100023D
:1000F0000A0000000705040210000507058302102E
:1001000000051201100102000008EB034420010069
:100110000102DC0111241FBECFEFD4E0DEBFCDBF52
:1001200011E0A0E0B1E0ECE6FAE102C005900D922A
:10013000A633B107D9F711E0A6E3B1E001C01D92E3
:10014000A938B107E1F70E94250B0C94340D0C94EB
:10015000000082E891E060E070E047E050E00E943B
:100160000C0D809182018F3FC1F410928201109298
:10017000830185E080938401109285018AEF80934A
:100180008601109287018093880182E891E060E007
:1001900070E047E050E00E941C0D08950F931F93FC
:1001A000CF93DF93CDB7DEB728970FB6F894DEBFB5
:1001B0000FBECDBF8B0190913D01933009F453C028
:1001C000943038F4913009F442C0923008F045C0C0
:1001D0000AC0953009F453C0953008F44AC09630EF
:1001E00009F087C052C08093360180913601882380
:1001F00031F581E0DB018C93FE01329697E0DF015F
:100200001D929A95E9F78A8380918301882311F4DE
:1002100082E08B83809184018C83809185018D8322
:10022000809186018E83809187018F8380918801E0
:100230008887CE01029667E00E94800C5CC08091A6
:100240003601813009F057C080933D0154C080933E
:10025000370182E080933D014EC08093380183E0F6
:1002600080933D0148C08093390184E080933D0133
:1002700042C080933A0185E080933D013CC0809369
:100280003B0186E080933D0136C080933C01109293
:100290003D018091370181FF03C01092830103C0AB
:1002A00081E0809383018091380180938401809163
:1002B00039018093850180913A0180938601809174
:1002C0003B018093870180913C018093880182E803
:1002D00091E060E070E047E050E00E941C0D81E09A
:1002E000F80180838983CE01019661E00E94800C31
:1002F00002C010923D0128960FB6F894DEBF0FBEE3
:10030000CDBFDF91CF911F910F9108950F931F9350
:1003100080917201882309F453C040913E015091AD
:100320003F0140930201509303018091400190915D
:100330004101909305018093040110927201609134
:100340008501209100013091010182E491E070E08B
:1003500000E010E00E94CA03409186010091000174
:100360001091010160910201709103018AE491E012
:1003700050E020E030E00E94CA03609187012091A4
:10038000000130910101409104015091050182E585
:1003900091E070E000E010E00E94CA034091880103
:1003A000009100011091010160910401709105011B
:1003B0008AE591E050E020E030E00E94CA03D0C01E
:1003C00080918301882309F0C9C020913E013091BA
:1003D0003F0180910201909103018217930760F51C
:1003E00060913E0170913F018AE491E00E942904EE
:1003F000BC01759567957595679575956795759524
:100400006795759567956F3F710519F014F06FEF5B
:1004100070E0772314F460E070E08091840190E054
:100420008617970724F480E00E94A40B30C080E078
:1004300060E00E94A40B2BC060913E0170913F01CF
:1004400082E491E00E942904BC0175956795759539
:1004500067957595679575956795759567956F3FE0
:10046000710519F014F06FEF70E0772314F460E079
:1004700070E08091840190E08617970724F481E072
:100480000E94A40B04C081E060E00E94A40B80E005
:1004900060E00E94B60B20914001309141018091B3
:1004A0000401909105018217930760F56091400166
:1004B000709141018AE591E00E942904BC01759583
:1004C0006795759567957595679575956795759514
:1004D00067956F3F710519F014F06FEF70E07723A7
:1004E00014F460E070E08091840190E08617970733
:1004F00024F480E00E94B60B33C080E060E00E94EC
:10050000B60B2EC0609140017091410182E591E0EF
:100510000E942904BC017595679575956795759539
:10052000679575956795759567956F3F710519F096
:1005300014F06FEF70E0772314F460E070E08091C6
:10054000840190E08617970724F481E00E94B60B9F
:1005500007C081E060E00E94B60B02C08091830179
:100560001F910F91089521E0853F920740F48A5F23
:10057000904090934101809340010E94860108952C
:1005800021E0853F920740F48A5F904090933F01BD
:1005900080933E010E9486010895909364018093A8
:1005A000630170936601609365018AB18C7F8AB99B
:1005B0008BB183608BB9E9E6F0E080818F60808346
:1005C0008DB383608DBB109285001092840081E012
:1005D00080936F0083E0809381000895809169018A
:1005E00008951F920F920FB60F9211248F93EF93DD
:1005F000FF9380916201843160F41092690110923E
:10060000670110926801E9E6F0E080818F608083E5
:1006100003C081E08093690110926201FF91EF9124
:100620008F910F900FBE0F901F9018951F920F92F1
:100630000FB60F9211242F933F934F935F936F93B5
:100640007F938F939F93AF93BF93EF93FF9380918B
:100650006701882389F480918400909185009093AC
:100660006B0180936A01E9E6F0E080818E7F8083F0
:1006700081E08093670123C0809167018130F9F4A4
:10068000809184009091850090936D0180936C011E
:10069000E0916301F091640120916A0130916B0156
:1006A000821B930B0995809162018F5F8093620199
:1006B000E9E6F0E080818160808310926701FF911C
:1006C000EF91BF91AF919F918F917F916F915F91CA
:1006D0004F913F912F910F900FBE0F901F90189543
:1006E0001F920F920FB60F9211242F933F934F93A7
:1006F0005F936F937F938F939F93AF93BF93EF938A
:10070000FF9380916801882389F4809184009091FF
:10071000850090936F0180936E01E9E6F0E080819F
:100720008B7F808381E08093680123C08091680182
:100730008130F9F48091840090918500909371014B
:1007400080937001E0916501F091660120916E0146
:1007500030916F01821B930B0995809162018F5F2D
:1007600080936201E9E6F0E08081846080831092EA
:100770006801FF91EF91BF91AF919F918F917F9110
:100780006F915F914F913F912F910F900FBE0F90FE
:100790001F9018954F925F926F927F928F929F92C7
:1007A000AF92BF92CF92DF92EF92FF920F931F937F
:1007B000CF93DF93EC01FB016A01EE24D7FCE094B8
:1007C000FE2C4801AA2497FCA094BA2CC901AA27A0
:1007D00097FDA095BA2F24013501481A590A6A0AD3
:1007E0007B0A962D852D742D66278F01222717FDF4
:1007F0002095322F26013701401A510A620A730AE6
:10080000562D452D342D22270E94CF0C2883398365
:100810004A835B83C701B6010E94B60CDC01CB01A1
:10082000881A990AAA0ABB0A8C829D82AE82BF826C
:10083000DF91CF911F910F91FF90EF90DF90CF90BC
:10084000BF90AF909F908F907F906F905F904F90F0
:100850000895FC01CB0120813181B9010E94A40CD3
:1008600024813581820F931F0895CF93DF93EC018C
:100870008091E80083FF9EC0888190E020917E01F6
:1008800030917F012817390709F094C080917B01CE
:10089000813269F0823220F4803209F08BC037C097
:1008A000823209F462C0833209F084C073C080913F
:1008B0007A01813A09F07EC0E8EEF0E08081877F1E
:1008C0008083808180FFFDCF4C895D896E897F891F
:1008D000E1EFF0E04083BB27A72F962F852F808381
:1008E000CB01AA27BB278083472F55276627772769
:1008F0004083888D8083898D80838A8D8083E8EE14
:10090000F0E080818E7780830E94E00753C0809161
:100910007A01813209F04EC0E8EEF0E08081877FF5
:10092000808305C080917901882309F443C08081C8
:1009300082FFF8CFE1EFF0E030812081908180816B
:100940003C8B2D8B9E8B8F8B8081888F8081898FB4
:1009500080818A8FE8EEF0E080818B7780830E942F
:10096000E007CE010E94CE0525C080917A01813238
:1009700009F5E8EEF0E08081877F80830E94E00740
:1009800080917C0190917D01998B888BCE010E9492
:10099000CE0510C080917A01813261F4E8EEF0E07A
:1009A0008081877F80830E94E007CE0160917C0177
:1009B0000E94CE05DF91CF910895CF93DF93EC0194
:1009C0004096E82FF92F8BE0DF011D928A95E9F719
:1009D00082E08C83898783E08E87CE01019661E077
:1009E0000E948307882369F0CE01069661E00E9489
:1009F0008307882341F0CE010B9661E00E948307B4
:100A000003C080E001C080E0DF91CF910895FC0138
:100A100080917901843099F484899589A689B78970
:100A20000097A105B10569F081818F708093E9007D
:100A3000CB01BA0140E050E00E94CF05089582E06A
:100A4000089582E0089520917901243021F5FC0178
:100A50004489558966897789411551056105710574
:100A6000E1F081818F708093E9008091F20088230A
:100A7000B1F0E8EEF0E0808190819E77908385FD73
:100A800010C00E940508882369F4E8EEF0E0908128
:100A90009E779083089582E0089582E0089580E033
:100AA000089580E00895209179012430A1F4FC019B
:100AB0004489558966897789411551056105710514
:100AC00051F021812F702093E9002091E80020FF50
:100AD00002C00E942305089520917901243011F568
:100AE000FC0144895589668977894115510561055D
:100AF0007105D9F086818F708093E9008091E800BC
:100B000082FF16C08091F200882341F4E8EEF0E005
:100B100080818B77808380E090E008958091F2005F
:100B200090E0089580E090E0089580E090E00895DE
:100B300080E090E00895FC0180917901843029F5EE
:100B40004489558966897789411551056105710583
:100B5000F9F086818F708093E9008091E80082FF30
:100B60001AC08091F200882321F08091F10090E07A
:100B700002C08FEF9FEF2091F200222371F4E8EE84
:100B8000F0E020812B77208308958FEF9FEF089569
:100B90008FEF9FEF08958FEF9FEF089508957F9255
:100BA0008F929F92AF92BF92CF92DF92EF92FF927D
:100BB0000F931F93CF93DF93EC018B014A010E94A7
:100BC0000508782E882309F042C08114910449F069
:100BD000F40180819181081B190B7E01E80EF91E3A
:100BE00001C07E010115110591F1CC24DD24C8EE70
:100BF000D0E00F2EF1EFAF2EBB24F02D888185FDC4
:100C000017C088818E7788838114910461F0F40184
:100C100080819181C80ED91ED182C0820F2EF5E04D
:100C20007F2EF02D14C00E940508882359F00EC0B5
:100C3000F70181917F01F5018083015010400894F4
:100C4000C11CD11C01151105C9F601C0782E872DD4
:100C5000DF91CF911F910F91FF90EF90DF90CF9098
:100C6000BF90AF909F908F907F9008950F931F93A8
:100C7000CF93DF93209180013091810126173707B0
:100C800058F06115710539F4E8EEF0E020812E7717
:100C900020839B0101C09B01E0E0A8EEB0E062EF81
:100CA00070E011E000E0C1EFD0E032C04091790186
:100CB000442309F441C0453009F440C04C9143FD40
:100CC0003FC04C9142FD31C04C9140FF21C0FB011F
:100CD000408150E02115310599F04830510580F4EC
:100CE000E82FF92F819188838E2F9F2F215030403C
:100CF0004F5F5F4F2115310519F04830510591F7CD
:100D0000E12F4830510509F0E02F4C914E774C937C
:100D10002115310559F6EE2349F607C08091790176
:100D2000882381F0853019F40FC0E8EEF0E080816F
:100D300082FFF4CF80E009C082E007C083E005C0F5
:100D400081E003C082E001C083E0DF91CF911F9179
:100D50000F910895EF92FF921F93CF93DF9320910D
:100D60008001309181012617370758F06115710510
:100D700039F4E8EEF0E020812E7720839B0101C05A
:100D80009B01E82FF92F10E0A8EEB0E042EF50E011
:100D900061E070E00F2EF1EFEF2EFF24F02D2FC059
:100DA00080917901882309F43EC0853009F43DC063
:100DB0008C9183FD3CC08C9182FD2EC08C9180FF74
:100DC0001EC0EA01888190E02115310581F088304C
:100DD000910568F41491E701188331962150304051
:100DE00001962115310519F08830910599F7162FD4
:100DF0008830910509F0172F8C918E778C932115EF
:100E0000310571F6112361F607C0809179018823BD
:100E100081F0853019F40FC0E8EEF0E0808182FFA8
:100E2000F4CF80E009C082E007C083E005C081E024
:100E300003C082E001C083E0DF91CF911F91FF905A
:100E4000EF9008958F929F92BF92CF92DF92EF9290
:100E5000FF920F931F93CF93DF93D62E8530C8F167
:100E600026C0492F4F70EB014883891731F0E40108
:100E7000E8805081E901F88003C05B2DED2CFC2C4B
:100E800051FF12C04C914E7F4C9340814D7F408367
:100E90004C9141604C93E401E8825083E901F8826F
:100EA000E8014881442344F49F5F9530D1F68F7068
:100EB0008093E90081E001C080E0DF91CF911F9134
:100EC0000F91FF90EF90DF90CF90BF909F908F9009
:100ED0000895982F9F709093E900982F542FE62E35
:100EE000FF24ABEEB0E0EDEEF0E00F2EFCEE8F2E27
:100EF0009924F02D20EF30E00EEE10E069EE70E066
:100F0000B42ECC24BDCFBF92CF92DF92EF92FF924E
:100F10000F931F93CF93DF93062F662309F441C0ED
:100F2000C82FD92F10E0FF24CC24DD246894C3F807
:100F3000BB246894B1F80F2EF6E0EF2EF02D9881C7
:100F4000992349F16B81E981FA812C81892F8F7076
:100F5000853048F56295660F660F607C991F99276A
:100F6000991F692B223010F04E2D01C04B2DE93016
:100F7000F10548F096019F2D9F5F220F331F2E171A
:100F80003F07D0F301C09F2D9295907F492B0E947F
:100F90002207882351F01F5F2596101781F681E004
:100FA00005C081E003C080E001C080E0DF91CF9107
:100FB0001F910F91FF90EF90DF90CF90BF90089519
:100FC00080917A018823B4F405C080917901882347
:100FD00019F40895E8EEF0E0808182FFF6CFE8EEA4
:100FE000F0E080818B778083089580917901882358
:100FF00019F40895E8EEF0E0808180FFF6CFE8EE86
:10100000F0E080818E77808308950F931F93CF93B4
:10101000DF932091E4003091E50065E6ECEEF0E02E
:10102000A8EEB0E00BEE10E044EE50E001C09C01F1
:10103000808180FF25C08C9180FD14C08091790152
:10104000882391F0853091F0E801888185FD10C0FA
:10105000EA01888199812817390751F3615039F7DE
:1010600084E009C080E007C082E005C083E003C0DF
:1010700081E001C080E0DF91CF911F910F91089531
:101080008C9182FFDBCFF6CF0E9485080E948808F2
:10109000E8EDF0E080818F778083808180688083B5
:1010A00080818F7D808384E089BD86E089BD09B41D
:1010B00000FEFDCF10927901109275011092770118
:1010C0001092760180E060E042E00E942207E1EEAB
:1010D000F0E080818E7F8083E2EEF0E080818160AD
:1010E0008083808188608083E0EEF0E080818E7F65
:1010F00080830895E3E6F0E080818E7F808381E045
:10110000809378010E94440808951092E2000895A7
:101110001092E10008951F920F920FB60F921124C2
:101120002F933F934F935F936F937F938F939F93EF
:10113000AF93BF93EF93FF938091E10082FF0BC0C9
:101140008091E20082FF07C0E1EEF0E080818B7FBA
:1011500080830E94F90A8091E10080FF16C080918F
:10116000E20080FF12C0E2EEF0E080818E7F80839B
:10117000808180618083E8EDF0E0808180628083FF
:1011800019BC109279010E94990C8091E10084FFB2
:1011900030C08091E20084FF2CC084E089BD86E0ED
:1011A00089BD09B400FEFDCFE8EDF0E080818F7DC0
:1011B0008083E1EEF0E080818F7E8083E2EEF0E0DC
:1011C00080818F7E808380818160808380917501A2
:1011D000882321F084E08093790109C08091E300A5
:1011E00087FF02C084E001C081E0809379010E9402
:1011F000980C8091E10083FF25C08091E20083FF7D
:1012000021C0E1EEF0E08081877F808382E08093DF
:1012100079011092750180818E7F8083E2EEF0E08B
:1012200080818E7F808380818061808380E060E028
:1012300042E00E942207E0EFF0E080818860808336
:101240000E94F90AFF91EF91BF91AF919F918F9109
:101250007F916F915F914F913F912F910F900FBEB2
:101260000F901F9018951F920F920FB60F92112496
:10127000FF920F931F932F933F934F935F936F931F
:101280007F938F939F93AF93BF93CF93DF93EF930E
:10129000FF938091E9000F2EFFE0FF2EF02DF82242
:1012A0008091EC0009EE10E0F8011082C0EFD0E070
:1012B0008881877F888378940E947A09F801108258
:1012C000888188608883F082FF91EF91DF91CF91D0
:1012D000BF91AF919F918F917F916F915F914F914E
:1012E0003F912F911F910F91FF900F900FBE0F9084
:1012F0001F9018950F931F93CF93DF93CDB7DEB751
:10130000AC970FB6F894DEBF0FBECDBFEAE7F1E0B1
:10131000CF010896A1EFB0E02C912193E817F907CF
:10132000D9F70E949F0C8091E80083FF43C1909100
:101330007A0180917B01853009F484C0863040F4C5
:101340008130C9F1813070F0833009F033C133C08E
:10135000883009F4FAC0893009F408C1863009F0F0
:1013600029C195C0903821F0923809F023C108C0F6
:101370008091760190917701992371F082600CC081
:1013800080917E018F708093E9009091EB0081E065
:1013900095FF80E01092E900E8EEF0E09081977F01
:1013A0009083A1EFB0E08C931C9280818E77808334
:1013B0000E94E007FFC0992309F40BC1923009F0A5
:1013C000F9C080917C01882341F032C091E08330E4
:1013D00009F090E0909377012BC080917E018F708F
:1013E00009F4E8C0982F9F709093E9009091EB006A
:1013F00090FF1EC090917B01933031F4EBEEF0E052
:1014000080818062808314C0EBEEF0E09081906177
:10141000908321E030E0A90102C0440F551F8A9556
:10142000E2F7AAEEB0E04C931C9280818860808342
:101430001092E900E8EEF0E08081877F80830E94CF
:10144000E007B8C0992309F0B5C000917C010F777F
:10145000E3EEF0E080818078802B8083E8EEF0E09E
:101460008081877F80830E94E007E8EEF0E0808142
:1014700080FFFDCFE3EEF0E0808180688083002371
:1014800011F083E001C082E08093790193C090580D
:10149000923008F08FC080917C0190917D0153E0E3
:1014A0008C3D9507C1F583E08C838AE28B836FB70F
:1014B000F894DE01159680E090E04EE051E2E42FD2
:1014C000F0E050935700249180FF03C022952F70C5
:1014D0004F5F2F702A3020F030E0295C3F4F03C06F
:1014E00030E0205D3F4F2D933D930196843191056F
:1014F00031F76FBF08EE10E0F8018081877F8083AD
:10150000CE0103966AE270E00E943606F8018081FF
:101510008B7780834FC060917E01AE014F5F5F4F3C
:101520000E940C0CBC01009709F444C008EE10E0C6
:10153000F8018081877F808389819A810E94AA0631
:10154000F80180818B77808335C0903899F5E8EE7B
:10155000F0E08081877F8083809175018093F10026
:1015600080818E7780830E94E00724C0992311F543
:1015700080917C018230F0F4E8EEF0E08081877F9A
:10158000808380917C01809375010E94E0078091A7
:101590007501882321F084E08093790109C080914E
:1015A000E30087FF02C084E001C081E080937901FD
:1015B0000E949A0C8091E80083FF10C0E8EEF0E0F2
:1015C0008081877F8083EBEEF0E080818062808382
:1015D00005C090917C01913069F7F8CEAC960FB6BA
:1015E000F894DEBF0FBECDBFDF91CF911F910F9159
:1015F00008950895CF93809179018823B1F0C09127
:10160000E900CF708091EC0080FF02C080E801C04B
:1016100080E0C82B1092E9008091E80083FF02C0AF
:101620000E947A09CF70C093E900CF9108950E947B
:10163000A9000E948B0B80EC92E063EB72E00E94A9
:10164000CD020E94400C78940895CF93DF9300D090
:10165000CDB7DEB70E94170B80E00F2EF5E0FF2E0E
:10166000F02D11E0EE246894E2F8DD246894D1F8BE
:1016700003E001C08E2D8230C9F0833030F488231E
:1016800079F0813009F043C019C08330F9F084301B
:10169000F1F524C00E94570C0E945E0C009751F790
:1016A0000E94EE028823B1F38D2DE5CF10937201D5
:1016B000809172018823E1F7812FDDCF0E94990B81
:1016C0000E94EE028823E1F7802FD5CF0E949C0B69
:1016D0000E94EE028823E1F3812FCDCF1A820E946F
:1016E000570C0E945E0C009769F01982CE0101969A
:1016F0000E946A0C882331F08981BE016E5F7F4FA2
:101700000E94CE008A81882351F380E0B4CF0E94EA
:101710009C0B8F2DB0CF469847982D982C983E9AC9
:101720003F9A259A249A87E080936E0083E085BDD6
:10173000089510921801089581E080931801469849
:1017400047982D982C980895662331F4EEE6F0E042
:1017500090819D7F908307C0609567BDEEE6F0E0C5
:10176000908192609083809374010895662331F490
:10177000EEE6F0E090819B7F908307C0609568BDA6
:10178000EEE6F0E090819460908380937301089579
:101790001F920F920FB60F921124469847982D98DA
:1017A0002C980F900FBE0F901F9018951F920F92BC
:1017B0000FB60F9211248F9380911801882359F44A
:1017C00080917401882311F4469A05C080917401B8
:1017D000813009F4479A8F910F900FBE0F901F90A0
:1017E00018951F920F920FB60F9211248F9380912C
:1017F0001801882359F480917301882311F42D9ADC
:1018000005C080917301813009F42C9A8F910F905B
:101810000FBE0F901F901895923049F0933061F0F1
:10182000913001F180E090E0E0E0F0E024C08EE350
:1018300090E0E4ECF0E01FC0813051F0813018F00E
:101840008230A9F40AC0E0ECF0E0849190E013C08B
:10185000E8EAF0E0849190E00EC0E4E7F0E08491E3
:1018600090E009C082E190E0E2E0F1E004C080E0B5
:1018700090E0E0E0F0E0DA011196FC93EE93089539
:1018800084B7877F84BF88E10FB6F89480936000A7
:10189000109260000FBE90E080E80FB6F89480933D
:1018A0006100909361000FBE0E947A0808958BE159
:1018B00091E00E9453050E94FA0A089580917901EF
:1018C000843029F48BE191E00E946C05089580E05A
:1018D00090E00895CF93DF93EC01809179018430FB
:1018E00049F48BE191E00E949B0599232CF08883B9
:1018F00081E003C080E001C080E0DF91CF910895D6
:101900009C01462F80917901843071F48BE191E044
:10191000B90150E00E940705882341F48BE191E072
:101920000E94230581E0089580E0089580E00895F5
:10193000089508958BE191E00E94DD0408958BE104
:1019400091E00E94350408955527002480FF02C0CD
:10195000060E571F660F771F6115710521F09695CA
:101960008795009799F7952F802D0895FF27EE27EB
:10197000BB27AA2760FF04C0A20FB31FE41FF51FF7
:10198000220F331F441F551F9695879577956795AE
:1019900089F70097760771F7CF01BD01089597FB8E
:1019A000092E05260ED057FD04D014D00AD0001CF5
:1019B00038F450954095309521953F4F4F4F5F4FEC
:1019C0000895F6F790958095709561957F4F8F4FAC
:1019D0009F4F0895A1E21A2EAA1BBB1BFD010DC04B
:1019E000AA1FBB1FEE1FFF1FA217B307E407F507CF
:1019F00020F0A21BB30BE40BF50B661F771F881FAB
:101A0000991F1A9469F760957095809590959B0140
:101A1000AC01BD01CF010895DC01CB01FC01F999B6
:101A2000FECF06C0F2BDE1BDF89A319600B40D922A
:101A300041505040B8F70895DC01CB0103C02D910F
:101A40000E94270D41505040D0F70895262FF99954
:101A5000FECF1FBA92BD81BD20BD0FB6F894FA9A91
:0C1A6000F99A0FBE01960895F894FFCF8C
:101A6C00E01F7D007D00A120000000000200A1010C
:101A7C00000000000000E01F01E01F0083100000C8
:101A8C0001041000000182080000010000000000A9
:061A9C0000000000000044
:00000001FF
