:100000000C948A000C9458040C94B2040C94A7002D
:100010000C94A7000C94A7000C94A7000C94A700C4
:100020000C94A7000C94A7000C94A7000C94230A2E
:100030000C94CB0A0C94A7000C94A7000C94A70076
:100040000C94A7000C94A7000C9433040C946F0D2F
:100050000C948A0D0C94610D0C94A7000C94A700CD
:100060000C94A7000C94A7000C94A7000C94A70074
:100070000C94A7001C034C00580052006F00620053
:100080006F007400690063007300200041006E007F
:100090007400770065006900670068007400200044
:1000A000450053004300000018034C005800520064
:1000B0006F0062006F00740069006300730000004D
:1000C0000403090409023E00020100C032090400D1
:1000D00000010202010005240010010424020605AB
:1000E00024060001070582030800FF09040100023D
:1000F0000A0000000705040210000507058302102E
:1001000000051201100102000008EB034420010069
:100110000102DC0111241FBECFEFD4E0DEBFCDBF52
:1001200011E0A0E0B1E0E8E5F0E202C005900D9238
:10013000AC33B107D9F711E0ACE3B1E001C01D92D7
:10014000A33BB107E1F70E94C10C0C942A100C9458
:10015000000088EA91E060E070E047E050E00E9433
:1001600002108091A8018F3FC1F41092A801109253
:10017000A90185E08093AA011092AB018AEF8093D8
:10018000AC011092AD018093AE0188EA91E060E08D
:1001900070E047E050E00E94121008950F931F9303
:1001A000CF93DF93CDB7DEB728970FB6F894DEBFB5
:1001B0000FBECDBF8B0190914301933009F453C022
:1001C000943038F4913009F442C0923008F045C0C0
:1001D0000AC0953009F453C0953008F44AC09630EF
:1001E00009F087C052C080933C0180913C01882374
:1001F00031F581E0DB018C93FE01329697E0DF015F
:100200001D929A95E9F78A838091A901882311F4B8
:1002100082E08B838091AA018C838091AB018D83D6
:100220008091AC018E838091AD018F838091AE016E
:100230008887CE01029667E00E94200E5CC0809104
:100240003C01813009F057C08093430154C0809332
:100250003D0182E0809343014EC080933E0183E0E4
:100260008093430148C080933F0184E08093430121
:1002700042C08093400185E0809343013CC080935D
:10028000410186E08093430136C080934201109281
:10029000430180913D0181FF03C01092A90103C079
:1002A00081E08093A90180913E018093AA01809111
:1002B0003F018093AB01809140018093AC0180911C
:1002C00041018093AD01809142018093AE0188EAA3
:1002D00091E060E070E047E050E00E94121081E0A1
:1002E000F80180838983CE01019661E00E94200E8F
:1002F00002C01092430128960FB6F894DEBF0FBEDD
:10030000CDBFDF91CF911F910F910895CF92DF92D2
:10031000EF92FF920F931F93CF93DF93C4E4D1E04A
:10032000CE0164E04DE750E00E94AA03CE0104969E
:1003300064E04DE750E00E94AA038CE491E042E0C3
:100340005EEF6FEF7FEF0EEF1FEF2FEF3FEF0F2E00
:10035000FEEFCF2EFFEFDF2EFFEFEF2EFFEFFF2E92
:10036000F02D0E94770588E591E040E050E0BA0169
:100370000EEF1FEF2FEF3FEFCC24DD2476016894C2
:10038000C1F80E947705DF91CF911F910F91FF90E7
:10039000EF90DF90CF9008959595879595958795E7
:1003A0009595879595958795959587958F3F910517
:1003B00019F014F08FEF90E0992314F480E090E0AE
:1003C00008950F931F93CF93DF9380919801882313
:1003D00009F46FC0C4E4D1E0CE010E94F50390930C
:1003E000030180930201CE0104960E94F5039093CD
:1003F000050180930401109298016091AB01209156
:10040000000130910101409102015091030184E605
:1004100091E070E000E010E00E940C054091AC011A
:10042000009100011091010160910201709103019E
:100430008CE691E050E020E030E00E940C056091F5
:10044000AD012091000130910101409104015091D2
:10045000050184E791E070E000E010E00E940C05E7
:100460004091AE01009100011091010160910401E1
:10047000709105018CE791E050E020E030E00E94AF
:100480000C058DE790E02091020130910301AC0151
:10049000421B530B5093850140938401209104012A
:1004A00030910501821B930B909387018093860105
:1004B00030C1C4E4D1E0CE010E94F5038C01CE012D
:1004C00004960E94F503EC018091A901882309F0AC
:1004D00065C0809102019091030180179107A8F4F3
:1004E0008CE691E0B8010E946B050E94CC01682F58
:1004F0008091AA01861720F480E00E943D0D19C06A
:1005000080E060E00E943D0D14C084E691E0B801F7
:100510000E946B050E94CC01682F8091AA0186176A
:1005200020F481E00E943D0D04C081E060E00E9463
:100530003D0D80E060E00E944F0D8091040190919C
:1005400005018C179D07A8F48CE791E0BE010E947D
:100550006B050E94CC01682F8091AA01861720F4B8
:1005600080E00E944F0DD5C080E060E00E944F0DFA
:10057000D0C084E791E0BE010E946B050E94CC01CF
:10058000682F8091AA01861720F481E00E944F0D08
:10059000C0C081E060E00E944F0DBBC08091A90106
:1005A000813009F0B6C06091840170918501600FBF
:1005B000711F40918601509187014C0F5D1F8CE4A3
:1005C00091E00E949105AB01BC01141615061606B8
:1005D0001706F4F44F3F51056105710529F024F029
:1005E0004FEF50E060E070E08091AA0190E0A0E061
:1005F000B0E084179507A607B7072CF480E0642FB6
:100600000E943D0D2BC080E060E00E943D0D26C0A1
:1006100041308FEF58078FEF68078FEF780724F48A
:1006200041E05FEF6FEF7FEF7095609550954195DA
:100630005F4F6F4F7F4F8091AA0190E0A0E0B0E044
:1006400084179507A607B7072CF481E0642F0E9452
:100650003D0D04C081E060E00E943D0D6091840189
:1006600070918501600F711F409186015091870143
:100670004C0F5D1F88E591E00E949105AB01BC0124
:100680001416150616061706F4F44F3F51056105BA
:10069000710529F024F04FEF50E060E070E08091A8
:1006A000AA0190E0A0E0B0E084179507A607B7077D
:1006B0002CF480E0642F0E944F0D2BC080E060E09E
:1006C0000E944F0D26C041308FEF58078FEF68070B
:1006D0008FEF780724F441E05FEF6FEF7FEF7095C5
:1006E0006095509541955F4F6F4F7F4F8091AA0164
:1006F00090E0A0E0B0E084179507A607B7072CF4B8
:1007000081E0642F0E944F0D04C081E060E00E94F0
:100710004F0DDF91CF911F910F91089521E0853FFB
:10072000920748F4BC016A5F704088E491E00E943F
:10073000DC030E94E101089521E0853F920748F41F
:10074000BC016A5F704084E491E00E94DC030E9477
:10075000E1010895FF920F931F93CF93DF93EC0174
:10076000F62E8A01862F90E0880F991F0E94D30EE3
:10077000282F392F398328832115310511F0FA826A
:1007800001C01A821B828A81882381F040E0842F75
:1007900090E0880F991F28813981820F931FFC01F7
:1007A000118300834F5F8A81481788F3DF91CF91CF
:1007B0001F910F91FF900895FC0120813181211537
:1007C000310591F0838190E0880F991F820F931F6C
:1007D000DC0111967C936E93838190E00196628197
:1007E00070E00E94830E83830895FC01628166237A
:1007F00071F00190F081E02D40E080E090E02191E7
:100800003191820F931F4F5F4617C9F702C080E0F6
:1008100090E070E00E946F0E862F972F08959093BE
:100820008A018093890170938C0160938B018AB156
:100830008C7F8AB98BB183608BB9E9E6F0E0808167
:100840008F6080838DB383608DBB10928500109282
:10085000840081E080936F0083E08093810008959D
:1008600080918F0108951F920F920FB60F9211245D
:100870008F93EF93FF9380918801843160F41092FD
:100880008F0110928D0110928E01E9E6F0E08081D7
:100890008F60808303C081E080938F011092880174
:1008A000FF91EF918F910F900FBE0F901F901895B1
:1008B0001F920F920FB60F9211242F933F934F93D5
:1008C0005F936F937F938F939F93AF93BF93EF93B8
:1008D000FF9380918D01882389F480918400909109
:1008E00085009093910180939001E9E6F0E080818A
:1008F0008E7F808381E080938D0123C080918D0164
:100900008130F9F480918400909185009093930157
:1009100080939201E0918901F0918A0120919001E8
:1009200030919101821B930B0995809188018F5F13
:1009300080938801E9E6F0E08081816080831092F5
:100940008D01FF91EF91BF91AF919F918F917F9119
:100950006F915F914F913F912F910F900FBE0F902C
:100960001F9018951F920F920FB60F9211242F937C
:100970003F934F935F936F937F938F939F93AF9327
:10098000BF93EF93FF9380918E01882389F4809128
:100990008400909185009093950180939401E9E6FD
:1009A000F0E080818B7F808381E080938E0123C083
:1009B00080918E018130F9F48091840090918500BE
:1009C0009093970180939601E0918B01F0918C01B7
:1009D0002091940130919501821B930B0995809190
:1009E00088018F5F80938801E9E6F0E08081846070
:1009F000808310928E01FF91EF91BF91AF919F91F3
:100A00008F917F916F915F914F913F912F910F90B7
:100A10000FBE0F901F9018954F925F926F927F922A
:100A20008F929F92AF92BF92CF92DF92EF92FF92FE
:100A30000F931F93CF93DF93EC01FB016A01EE2428
:100A4000D7FCE094FE2C4801AA2497FCA094BA2C71
:100A5000C901AA2797FDA095BA2F24013501481A8C
:100A6000590A6A0A7B0A962D852D742D66278F01F7
:100A7000222717FD2095322F26013701401A510AEF
:100A8000620A730A562D452D342D22270E94960E98
:100A9000288339834A835B83C701B6010E94560EBF
:100AA000DC01CB01881A990AAA0ABB0A8C829D82B2
:100AB000AE82BF82DF91CF911F910F91FF90EF9097
:100AC000DF90CF90BF90AF909F908F907F906F906E
:100AD0005F904F900895FC01CB0120813181B901D5
:100AE0000E94440E24813581820F931F0895CF9276
:100AF000DF92EF92FF920F931F93FC01408351838B
:100B0000628373830483158326833783C086D186EB
:100B1000E286F3861F910F91FF90EF90DF90CF90C8
:100B20000895CF92DF92EF92FF920F931F93CF938E
:100B3000DF93EC018A01882777FD8095982F2C811F
:100B40003D814E815F810E94560EDC01CB01C88041
:100B5000D980EA80FB80C81AD90AEA0AFB0AB801E0
:100B6000882777FD8095982F288539854A855B856C
:100B70000E94560EDC01CB01C81AD90AEA0AFB0A08
:100B80006C2D7D2D8E2D9F2DDF91CF911F910F917B
:100B9000FF90EF90DF90CF900895CF93DF93EC011B
:100BA0008091E80083FF9EC0888190E02091A4019D
:100BB0003091A5012817390709F094C08091A1014F
:100BC000813269F0823220F4803209F08BC037C064
:100BD000823209F462C0833209F084C073C080910C
:100BE000A001813A09F07EC0E8EEF0E08081877FC5
:100BF0008083808180FFFDCF4C895D896E897F89EC
:100C0000E1EFF0E04083BB27A72F962F852F80834D
:100C1000CB01AA27BB278083472F55276627772735
:100C20004083888D8083898D80838A8D8083E8EEE0
:100C3000F0E080818E7780830E94780953C0809194
:100C4000A001813209F04EC0E8EEF0E08081877F9C
:100C5000808305C080919F01882309F443C080816F
:100C600082FFF8CFE1EFF0E0308120819081808138
:100C70003C8B2D8B9E8B8F8B8081888F8081898F81
:100C800080818A8FE8EEF0E080818B7780830E94FC
:100C90007809CE010E94660725C08091A0018132AB
:100CA00009F5E8EEF0E08081877F80830E94780973
:100CB0008091A2019091A301998B888BCE010E9413
:100CC000660710C08091A001813261F4E8EEF0E087
:100CD0008081877F80830E947809CE016091A20184
:100CE0000E946607DF91CF910895CF93DF93EC01C7
:100CF0004096E82FF92F8BE0DF011D928A95E9F7E6
:100D000082E08C83898783E08E87CE01019661E043
:100D10000E941B09882369F0CE01069661E00E94BB
:100D20001B09882341F0CE010B9661E00E941B094C
:100D300003C080E001C080E0DF91CF910895FC0105
:100D400080919F01843099F484899589A689B78917
:100D50000097A105B10569F081818F708093E9004A
:100D6000CB01BA0140E050E00E946707089582E09D
:100D7000089582E0089520919F01243021F5FC011F
:100D80004489558966897789411551056105710541
:100D9000E1F081818F708093E9008091F2008823D7
:100DA000B1F0E8EEF0E0808190819E77908385FD40
:100DB00010C00E949D09882369F4E8EEF0E090815C
:100DC0009E779083089582E0089582E0089580E000
:100DD000089580E0089520919F012430A1F4FC0142
:100DE00044895589668977894115510561057105E1
:100DF00051F021812F702093E9002091E80020FF1D
:100E000002C00E94BB06089520919F01243011F575
:100E1000FC01448955896689778941155105610529
:100E20007105D9F086818F708093E9008091E80088
:100E300082FF16C08091F200882341F4E8EEF0E0D2
:100E400080818B77808380E090E008958091F2002C
:100E500090E0089580E090E0089580E090E00895AB
:100E600080E090E00895FC0180919F01843029F595
:100E70004489558966897789411551056105710550
:100E8000F9F086818F708093E9008091E80082FFFD
:100E90001AC08091F200882321F08091F10090E047
:100EA00002C08FEF9FEF2091F200222371F4E8EE51
:100EB000F0E020812B77208308958FEF9FEF089536
:100EC0008FEF9FEF08958FEF9FEF089508957F9222
:100ED0008F929F92AF92BF92CF92DF92EF92FF924A
:100EE0000F931F93CF93DF93EC018B014A010E9474
:100EF0009D09782E882309F042C08114910449F09D
:100F0000F40180819181081B190B7E01E80EF91E06
:100F100001C07E010115110591F1CC24DD24C8EE3C
:100F2000D0E00F2EF1EFAF2EBB24F02D888185FD90
:100F300017C088818E7788838114910461F0F40151
:100F400080819181C80ED91ED182C0820F2EF5E01A
:100F50007F2EF02D14C00E949D09882359F00EC0E9
:100F6000F70181917F01F5018083015010400894C1
:100F7000C11CD11C01151105C9F601C0782E872DA1
:100F8000DF91CF911F910F91FF90EF90DF90CF9065
:100F9000BF90AF909F908F907F9008950F931F9375
:100FA000CF93DF932091A6013091A7012617370731
:100FB00058F06115710539F4E8EEF0E020812E77E4
:100FC00020839B0101C09B01E0E0A8EEB0E062EF4E
:100FD00070E011E000E0C1EFD0E032C040919F012D
:100FE000442309F441C0453009F440C04C9143FD0D
:100FF0003FC04C9142FD31C04C9140FF21C0FB01EC
:10100000408150E02115310599F04830510580F4B8
:10101000E82FF92F819188838E2F9F2F2150304008
:101020004F5F5F4F2115310519F04830510591F799
:10103000E12F4830510509F0E02F4C914E774C9349
:101040002115310559F6EE2349F607C080919F011D
:10105000882381F0853019F40FC0E8EEF0E080813C
:1010600082FFF4CF80E009C082E007C083E005C0C2
:1010700081E003C082E001C083E0DF91CF911F9146
:101080000F910895EF92FF921F93CF93DF932091DA
:10109000A6013091A7012617370758F06115710591
:1010A00039F4E8EEF0E020812E7720839B0101C027
:1010B0009B01E82FF92F10E0A8EEB0E042EF50E0DE
:1010C00061E070E00F2EF1EFEF2EFF24F02D2FC026
:1010D00080919F01882309F43EC0853009F43DC00A
:1010E0008C9183FD3CC08C9182FD2EC08C9180FF41
:1010F0001EC0EA01888190E02115310581F0883019
:10110000910568F41491E70118833196215030401D
:1011100001962115310519F08830910599F7162FA0
:101120008830910509F0172F8C918E778C932115BB
:10113000310571F6112361F607C080919F01882364
:1011400081F0853019F40FC0E8EEF0E0808182FF75
:10115000F4CF80E009C082E007C083E005C081E0F1
:1011600003C082E001C083E0DF91CF911F91FF9027
:10117000EF9008958F929F92BF92CF92DF92EF925D
:10118000FF920F931F93CF93DF93D62E8530C8F134
:1011900026C0492F4F70EB014883891731F0E401D5
:1011A000E8805081E901F88003C05B2DED2CFC2C18
:1011B00051FF12C04C914E7F4C9340814D7F408334
:1011C0004C9141604C93E401E8825083E901F8823C
:1011D000E8014881442344F49F5F9530D1F68F7035
:1011E0008093E90081E001C080E0DF91CF911F9101
:1011F0000F91FF90EF90DF90CF90BF909F908F90D6
:101200000895982F9F709093E900982F542FE62E01
:10121000FF24ABEEB0E0EDEEF0E00F2EFCEE8F2EF3
:101220009924F02D20EF30E00EEE10E069EE70E032
:10123000B42ECC24BDCFBF92CF92DF92EF92FF921B
:101240000F931F93CF93DF93062F662309F441C0BA
:10125000C82FD92F10E0FF24CC24DD246894C3F8D4
:10126000BB246894B1F80F2EF6E0EF2EF02D988194
:10127000992349F16B81E981FA812C81892F8F7043
:10128000853048F56295660F660F607C991F992737
:10129000991F692B223010F04E2D01C04B2DE930E3
:1012A000F10548F096019F2D9F5F220F331F2E17E7
:1012B0003F07D0F301C09F2D9295907F492B0E944C
:1012C000BA08882351F01F5F2596101781F681E038
:1012D00005C081E003C080E001C080E0DF91CF91D4
:1012E0001F910F91FF90EF90DF90CF90BF900895E6
:1012F0008091A0018823B4F405C080919F018823C8
:1013000019F40895E8EEF0E0808182FFF6CFE8EE70
:10131000F0E080818B778083089580919F018823FE
:1013200019F40895E8EEF0E0808180FFF6CFE8EE52
:10133000F0E080818E77808308950F931F93CF9381
:10134000DF932091E4003091E50065E6ECEEF0E0FB
:10135000A8EEB0E00BEE10E044EE50E001C09C01BE
:10136000808180FF25C08C9180FD14C080919F01F9
:10137000882391F0853091F0E801888185FD10C0C7
:10138000EA01888199812817390751F3615039F7AB
:1013900084E009C080E007C082E005C083E003C0AC
:1013A00081E001C080E0DF91CF911F910F910895FE
:1013B0008C9182FFDBCFF6CF0E941D0A0E94200A8B
:1013C000E8EDF0E080818F77808380818068808382
:1013D00080818F7D808384E089BD86E089BD09B4EA
:1013E00000FEFDCF10929F0110929B0110929D0173
:1013F00010929C0180E060E042E00E94BA08E1EEB9
:10140000F0E080818E7F8083E2EEF0E08081816079
:101410008083808188608083E0EEF0E080818E7F31
:1014200080830895E3E6F0E080818E7F808381E011
:1014300080939E010E94DC0908951092E2000895B5
:101440001092E10008951F920F920FB60F9211248F
:101450002F933F934F935F936F937F938F939F93BC
:10146000AF93BF93EF93FF938091E10082FF0BC096
:101470008091E20082FF07C0E1EEF0E080818B7F87
:1014800080830E94910C8091E10080FF16C08091C2
:10149000E20080FF12C0E2EEF0E080818E7F808368
:1014A000808180618083E8EDF0E0808180628083CC
:1014B00019BC10929F010E94390E8091E10084FFB7
:1014C00030C08091E20084FF2CC084E089BD86E0BA
:1014D00089BD09B400FEFDCFE8EDF0E080818F7D8D
:1014E0008083E1EEF0E080818F7E8083E2EEF0E0A9
:1014F00080818F7E808380818160808380919B0149
:10150000882321F084E080939F0109C08091E3004B
:1015100087FF02C084E001C081E080939F010E94A8
:10152000380E8091E10083FF25C08091E20083FFA7
:1015300021C0E1EEF0E08081877F808382E08093AC
:101540009F0110929B0180818E7F8083E2EEF0E00C
:1015500080818E7F808380818061808380E060E0F5
:1015600042E00E94BA08E0EFF0E08081886080836A
:101570000E94910CFF91EF91BF91AF919F918F913C
:101580007F916F915F914F913F912F910F900FBE7F
:101590000F901F9018951F920F920FB60F92112463
:1015A000FF920F931F932F933F934F935F936F93EC
:1015B0007F938F939F93AF93BF93CF93DF93EF93DB
:1015C000FF938091E9000F2EFFE0FF2EF02DF8220F
:1015D0008091EC0009EE10E0F8011082C0EFD0E03D
:1015E0008881877F888378940E94120BF80110828B
:1015F000888188608883F082FF91EF91DF91CF919D
:10160000BF91AF919F918F917F916F915F914F911A
:101610003F912F911F910F91FF900F900FBE0F9050
:101620001F9018950F931F93CF93DF93CDB7DEB71D
:10163000AC970FB6F894DEBF0FBECDBFE0EAF1E085
:10164000CF010896A1EFB0E02C912193E817F9079C
:10165000D9F70E943F0E8091E80083FF43C190912B
:10166000A0018091A101853009F484C0863040F446
:101670008130C9F1813070F0833009F033C133C05B
:10168000883009F4FAC0893009F408C1863009F0BD
:1016900029C195C0903821F0923809F023C108C0C3
:1016A00080919C0190919D01992371F082600CC002
:1016B0008091A4018F708093E9009091EB0081E00C
:1016C00095FF80E01092E900E8EEF0E09081977FCE
:1016D0009083A1EFB0E08C931C9280818E77808301
:1016E0000E947809FFC0992309F40BC1923009F0D8
:1016F000F9C08091A201882341F032C091E083308B
:1017000009F090E090939D012BC08091A4018F700F
:1017100009F4E8C0982F9F709093E9009091EB0036
:1017200090FF1EC09091A101933031F4EBEEF0E0F8
:1017300080818062808314C0EBEEF0E09081906144
:10174000908321E030E0A90102C0440F551F8A9523
:10175000E2F7AAEEB0E04C931C928081886080830F
:101760001092E900E8EEF0E08081877F80830E949C
:101770007809B8C0992309F0B5C00091A2010F778C
:10178000E3EEF0E080818078802B8083E8EEF0E06B
:101790008081877F80830E947809E8EEF0E0808175
:1017A00080FFFDCFE3EEF0E080818068808300233E
:1017B00011F083E001C082E080939F0193C09058B4
:1017C000923008F08FC08091A2019091A30153E064
:1017D0008C3D9507C1F583E08C838AE28B836FB7DC
:1017E000F894DE01159680E090E04EE051E2E42F9F
:1017F000F0E050935700249180FF03C022952F7092
:101800004F5F2F702A3020F030E0295C3F4F03C03B
:1018100030E0205D3F4F2D933D930196843191053B
:1018200031F76FBF08EE10E0F8018081877F808379
:10183000CE0103966AE270E00E94CE07F801808133
:101840008B7780834FC06091A401AE014F5F5F4FE3
:101850000E94AC0DBC01009709F444C008EE10E0F2
:10186000F8018081877F808389819A810E94420864
:10187000F80180818B77808335C0903899F5E8EE48
:10188000F0E08081877F808380919B018093F100CD
:1018900080818E7780830E94780924C0992311F576
:1018A0008091A2018230F0F4E8EEF0E08081877F41
:1018B00080838091A20180939B010E94780980918E
:1018C0009B01882321F084E080939F0109C08091CF
:1018D000E30087FF02C084E001C081E080939F01A4
:1018E0000E943A0E8091E80083FF10C0E8EEF0E01D
:1018F0008081877F8083EBEEF0E08081806280834F
:1019000005C09091A201913069F7F8CEAC960FB660
:10191000F894DEBF0FBECDBFDF91CF911F910F9125
:1019200008950895CF9380919F018823B1F0C091CD
:10193000E900CF708091EC0080FF02C080E801C018
:1019400080E0C82B1092E9008091E80083FF02C07C
:101950000E94120BCF70C093E900CF9108950E94AE
:10196000A9000E94240D0E9486018CE993E06EE894
:1019700073E00E940F040E94E00D0E94A50D789470
:101980000895CF93DF9300D0CDB7DEB70E94AF0CA0
:1019900080E011E003E001C084E08230D1F08330C8
:1019A00030F4882381F0813009F048C01AC08330B8
:1019B00011F1843009F042C028C00E94F70D0E9446
:1019C000FE0D009749F70E9430048823B1F382E0AE
:1019D000E4CF10939801809198018823E1F7812F3B
:1019E000DCCF0E94320D0E94A80D0E943004882393
:1019F000E1F7802FD2CF0E94350D0E94AA0D0E94E0
:101A000030048823E1F3812FC8CF1A820E94F70D9A
:101A10000E94FE0D009769F01982CE0101960E9486
:101A20000A0E882331F08981BE016E5F7F4F0E94CC
:101A3000CE008A81882351F380E0AFCF0E94350D1C
:101A40000E94AA0D0000FECF469847982D982C982A
:101A50003E9A3F9A259A249A87E080936E0083E00D
:101A600085BD089510921801089581E080931801B2
:101A7000469847982D982C980895662331F4EEE601
:101A8000F0E090819D7F908307C0609567BDEEE692
:101A9000F0E090819260908380939A01089566238C
:101AA00031F4EEE6F0E090819B7F908307C0609573
:101AB00068BDEEE6F0E09081946090838093990198
:101AC00008951F920F920FB60F92112446984798CF
:101AD0002D982C980F900FBE0F901F9018951F9265
:101AE0000F920FB60F9211248F93809118018823C3
:101AF00059F480919A01882311F4469A05C0809187
:101B00009A01813009F4479A8F910F900FBE0F9080
:101B10001F9018951F920F920FB60F9211248F935A
:101B200080911801882359F480919901882311F438
:101B30002D9A05C080919901813009F42C9A8F91DA
:101B40000F900FBE0F901F9018953A9A429A0895E1
:101B500042980895429A0895923049F0933061F086
:101B6000913001F180E090E0E0E0F0E024C08EE30D
:101B700090E0E4ECF0E01FC0813051F0813018F0CB
:101B80008230A9F40AC0E0ECF0E0849190E013C048
:101B9000E8EAF0E0849190E00EC0E4E7F0E08491A0
:101BA00090E009C082E190E0E2E0F1E004C080E072
:101BB00090E0E0E0F0E0DA011196FC93EE930895F6
:101BC00084B7877F84BF88E10FB6F8948093600064
:101BD000109260000FBE90E080E80FB6F8948093FA
:101BE0006100909361000FBE0E94120A08958BE17C
:101BF00091E00E94EB060E94920C089580919F0153
:101C0000843029F48BE191E00E940407089580E07C
:101C100090E00895CF93DF93EC0180919F01843091
:101C200049F48BE191E00E94330799232CF08883DB
:101C300081E003C080E001C080E0DF91CF91089592
:101C40009C01462F80919F01843071F48BE191E0DB
:101C5000B90150E00E949F06882341F48BE191E096
:101C60000E94BB0681E0089580E0089580E0089519
:101C7000089508958BE191E00E94750608958BE127
:101C800091E00E94CD0508955527002480FF02C0F1
:101C9000060E571F660F771F6115710521F0969587
:101CA0008795009799F7952F802D0895FF27EE27A8
:101CB000BB27AA2760FF04C0A20FB31FE41FF51FB4
:101CC000220F331F441F551F96958795779567956B
:101CD00089F70097760771F7CF01BD010895AA1B18
:101CE000BB1B51E107C0AA1FBB1FA617B70710F007
:101CF000A61BB70B881F991F5A95A9F78095909539
:101D0000BC01CD01089597FB092E07260AD077FD67
:101D100004D0E5DF06D000201AF4709561957F4F5E
:101D20000895F6F7909581959F4F089597FB092E9A
:101D300005260ED057FD04D014D00AD0001C38F46C
:101D400050954095309521953F4F4F4F5F4F0895E7
:101D5000F6F790958095709561957F4F8F4F9F4FC7
:101D60000895A1E21A2EAA1BBB1BFD010DC0AA1FDC
:101D7000BB1FEE1FFF1FA217B307E407F50720F0F4
:101D8000A21BB30BE40BF50B661F771F881F991F6F
:101D90001A9469F760957095809590959B01AC01B8
:101DA000BD01CF010895CF93DF93AC01823091053F
:101DB00010F442E050E0E091B101F091B20120E076
:101DC00030E0A0E0B0E024C08081918184179507C5
:101DD000D0F08417950771F482819381109729F0D0
:101DE00013969C938E9312972CC09093B20180937C
:101DF000B10127C02115310519F08217930718F496
:101E00009C01BD01EF0192818381DF01E92FF82F51
:101E10003097D1F621153105F9F0C901841B950BD6
:101E20008430910580F48A819B816115710521F0D0
:101E3000FB019383828304C09093B2018093B1012C
:101E4000FE01329642C0FE01E80FF91F4193519303
:101E500002979983888339C08091AF019091B00136
:101E6000009741F480913801909139019093B0012D
:101E70008093AF0120913601309137012115310552
:101E800041F42DB73EB780913A0190913B01281B58
:101E9000390BE091AF01F091B001E217F30798F42C
:101EA0002E1B3F0B2417350770F0CA010296281726
:101EB000390748F08E0F9F1F9093B0018093AF01B8
:101EC0004193519302C0E0E0F0E0CF01DF91CF9168
:101ED00008950F931F93CF93DF939C01009709F40C
:101EE0008CC0DC01129713961C921E92129760917F
:101EF000B1017091B2016115710589F48D919C91C8
:101F00001197820F931F2091AF013091B0012817D4
:101F1000390769F5B093B001A093AF016EC0FB0122
:101F200040E050E001C0FC01EA17FB0730F4828179
:101F30009381AF010097B9F71FC0E9012297FB8396
:101F4000EA8308811981C901800F911F8E179F07AD
:101F500059F480819181800F911F02969983888323
:101F6000828193819B838A834115510529F4B09323
:101F7000B201A093B10141C0FA01B383A283C19120
:101F8000D191EC0FFD1FAE17BF0781F4F9019291BB
:101F900082918C0F9D1F0296DA0111969C938E936D
:101FA0008281938113969C938E931297E0E0F0E0E8
:101FB00002C0FB01BC01DB0112968D919C9113972D
:101FC0000097B9F7CB0102962D913C911197820FA2
:101FD000931F2091AF013091B0012817390769F4A0
:101FE000309729F41092B2011092B10102C013820D
:101FF00012827093B0016093AF01DF91CF911F9176
:102000000F910895DC01CB01FC01F999FECF06C0C8
:10201000F2BDE1BDF89A319600B40D9241505040A6
:10202000B8F70895DC01CB0103C02D910E941D106B
:1020300041505040D0F70895262FF999FECF1FBA8E
:1020400092BD81BD20BD0FB6F894FA9AF99A0FBEE1
:0820500001960895F894FFCFFA
:10205800E01F7D007D00A120000000000200A1011A
:10206800000000000000E01F01E01F0083100000D6
:1020780001041000000182080000010000000000B7
:0C2088000000000000000000B301200078
:00000001FF
