:100000000C948A000C9456030C94B0030C94A70033
:100010000C94A7000C94A7000C94A7000C94A700C4
:100020000C94A7000C94A7000C94A7000C94CB0888
:100030000C9473090C94A7000C94A7000C94A700CF
:100040000C94A7000C94A7000C9431030C94170C8B
:100050000C94320C0C94090C0C94A7000C94A7007F
:100060000C94A7000C94A7000C94A7000C94A70074
:100070000C94A7001C034C00580052006F00620053
:100080006F007400690063007300200041006E007F
:100090007400770065006900670068007400200044
:1000A000450053004300000018034C005800520064
:1000B0006F0062006F00740069006300730000004D
:1000C0000403090409023E00020100C032090400D1
:1000D00000010202010005240010010424020605AB
:1000E00024060001070582030800FF09040100023D
:1000F0000A0000000705040210000507058302102E
:1001000000051201100102000008EB034420010069
:100110000102DC0111241FBECFEFD4E0DEBFCDBF52
:1001200011E0A0E0B1E0E8EAFDE102C005900D9227
:10013000AC33B107D9F711E0ACE3B1E001C01D92D7
:10014000A739B107E1F70E94690B0C94D20E0C9409
:1001500000008CE891E060E070E047E050E00E9431
:10016000AA0E80918C018F3FC1F410928C011092E5
:100170008D0185E080938E0110928F018AEF80932C
:10018000900110929101809392018CE891E060E0DF
:1001900070E047E050E00E94BA0E08950F931F935D
:1001A000CF93DF93CDB7DEB728970FB6F894DEBFB5
:1001B0000FBECDBF8B0190914301933009F453C022
:1001C000943038F4913009F442C0923008F045C0C0
:1001D0000AC0953009F453C0953008F44AC09630EF
:1001E00009F087C052C080933C0180913C01882374
:1001F00031F581E0DB018C93FE01329697E0DF015F
:100200001D929A95E9F78A8380918D01882311F4D4
:1002100082E08B8380918E018C8380918F018D830E
:10022000809190018E83809191018F8380919201C2
:100230008887CE01029667E00E94C80C5CC080915E
:100240003C01813009F057C08093430154C0809332
:100250003D0182E0809343014EC080933E0183E0E4
:100260008093430148C080933F0184E08093430121
:1002700042C08093400185E0809343013CC080935D
:10028000410186E08093430136C080934201109281
:10029000430180913D0181FF03C010928D0103C095
:1002A00081E080938D0180913E0180938E01809149
:1002B0003F0180938F018091400180939001809154
:1002C00041018093910180914201809392018CE8D9
:1002D00091E060E070E047E050E00E94BA0E81E0FB
:1002E000F80180838983CE01019661E00E94C80CE9
:1002F00002C01092430128960FB6F894DEBF0FBEDD
:10030000CDBFDF91CF911F910F910895CF93DF93D0
:10031000C4E4D1E0CE0164E04DE750E00E94A802C1
:10032000CE01049664E04DE750E00E94A802DF9100
:10033000CF910895959587959595879595958795EE
:1003400095958795959587958F3F910519F014F0B0
:100350008FEF90E0992314F480E090E008950F93DC
:100360001F93CF93DF9380917C01882309F458C0B9
:10037000C4E4D1E0CE010E94F30290930301809384
:100380000201CE0104960E94F3029093050180932E
:10039000040110927C0160918F0120910001309145
:1003A000010140910201509103018CE491E070E061
:1003B00000E010E00E940A044091900100910001C9
:1003C00010910101609102017091030184E591E0B7
:1003D00050E020E030E00E940A04609191012091F9
:1003E00000013091010140910401509105018CE51B
:1003F00091E070E000E010E00E940A044091920158
:1004000000910001109101016091040170910501BA
:1004100084E691E050E020E030E00E940A0477C0DA
:10042000C4E4D1E0CE010E94F3028C01CE01049617
:100430000E94F302EC0180918D01882309F065C0D0
:10044000809102019091030180179107A8F484E53F
:1004500091E0B8010E9469040E949A01682F80917E
:100460008E01861720F480E00E94E50B19C080E021
:1004700060E00E94E50B14C08CE491E0B8010E949A
:1004800069040E949A01682F80918E01861720F4DA
:1004900081E00E94E50B04C081E060E00E94E50B72
:1004A00080E060E00E94F70B8091040190910501CB
:1004B0008C179D07A8F484E691E0BE010E946904B0
:1004C0000E949A01682F80918E01861720F480E0A7
:1004D0000E94F70B1CC080E060E00E94F70B17C081
:1004E0008CE591E0BE010E9469040E949A01682F88
:1004F00080918E01861720F481E00E94F70B07C0DF
:1005000081E060E00E94F70B02C080918D01DF91D5
:10051000CF911F910F91089521E0853F920748F4F4
:10052000BC016A5F704088E491E00E94DA020E9498
:10053000AF01089521E0853F920748F4BC016A5F4E
:10054000704084E491E00E94DA020E94AF010895B5
:10055000FF920F931F93CF93DF93EC01F62E8A0146
:10056000862F90E0880F991F0E947B0D282F392F2E
:10057000398328832115310511F0FA8201C01A82CE
:100580001B828A81882381F040E0842F90E0880FCD
:10059000991F28813981820F931FFC0111830083E9
:1005A0004F5F8A81481788F3DF91CF911F910F9198
:1005B000FF900895FC01208131812115310591F0D2
:1005C000838190E0880F991F820F931FDC011196A1
:1005D0007C936E93838190E00196628170E00E942B
:1005E0002B0D83830895FC016281662371F00190D5
:1005F000F081E02D40E080E090E021913191820F88
:10060000931F4F5F4617C9F702C080E090E070E08B
:100610000E94170D862F972F089590936E01809357
:100620006D017093700160936F018AB18C7F8AB9FC
:100630008BB183608BB9E9E6F0E080818F608083C5
:100640008DB383608DBB109285001092840081E091
:1006500080936F0083E080938100089580917301FF
:1006600008951F920F920FB60F9211248F93EF935C
:10067000FF9380916C01843160F4109273011092A9
:10068000710110927201E9E6F0E080818F60808351
:1006900003C081E08093730110926C01FF91EF9190
:1006A0008F910F900FBE0F901F9018951F920F9271
:1006B0000FB60F9211242F933F934F935F936F9335
:1006C0007F938F939F93AF93BF93EF93FF9380910B
:1006D0007101882389F48091840090918500909322
:1006E000750180937401E9E6F0E080818E7F80835C
:1006F00081E08093710123C0809171018130F9F410
:100700008091840090918500909377018093760189
:10071000E0916D01F0916E012091740130917501AD
:10072000821B930B099580916C018F5F80936C0104
:10073000E9E6F0E080818160808310927101FF9191
:10074000EF91BF91AF919F918F917F916F915F9149
:100750004F913F912F910F900FBE0F901F901895C2
:100760001F920F920FB60F9211242F933F934F9326
:100770005F936F937F938F939F93AF93BF93EF9309
:10078000FF9380917201882389F480918400909175
:1007900085009093790180937801E9E6F0E080810B
:1007A0008B7F808381E08093720123C080917201EE
:1007B0008130F9F4809184009091850090937B01C1
:1007C00080937A01E0916F01F0917001209178019E
:1007D00030917901821B930B099580916C018F5F99
:1007E00080936C01E9E6F0E0808184608083109260
:1007F0007201FF91EF91BF91AF919F918F917F9186
:100800006F915F914F913F912F910F900FBE0F907D
:100810001F9018954F925F926F927F928F929F9246
:10082000AF92BF92CF92DF92EF92FF920F931F93FE
:10083000CF93DF93EC01FB016A01EE24D7FCE09437
:10084000FE2C4801AA2497FCA094BA2CC901AA271F
:1008500097FDA095BA2F24013501481A590A6A0A52
:100860007B0A962D852D742D66278F01222717FD73
:100870002095322F26013701401A510A620A730A65
:10088000562D452D342D22270E943E0D2883398375
:100890004A835B83C701B6010E94FE0CDC01CB01D9
:1008A000881A990AAA0ABB0A8C829D82AE82BF82EC
:1008B000DF91CF911F910F91FF90EF90DF90CF903C
:1008C000BF90AF909F908F907F906F905F904F9070
:1008D0000895FC01CB0120813181B9010E94EC0C0B
:1008E00024813581820F931F0895CF93DF93EC010C
:1008F0008091E80083FF9EC0888190E0209188016C
:10090000309189012817390709F094C08091850139
:10091000813269F0823220F4803209F08BC037C016
:10092000823209F462C0833209F084C073C08091BE
:100930008401813A09F07EC0E8EEF0E08081877F93
:100940008083808180FFFDCF4C895D896E897F899E
:10095000E1EFF0E04083BB27A72F962F852F808300
:10096000CB01AA27BB278083472F552766277727E8
:100970004083888D8083898D80838A8D8083E8EE93
:10098000F0E080818E7780830E94200853C08091A0
:100990008401813209F04EC0E8EEF0E08081877F6B
:1009A000808305C080918301882309F443C080813E
:1009B00082FFF8CFE1EFF0E03081208190818081EB
:1009C0003C8B2D8B9E8B8F8B8081888F8081898F34
:1009D00080818A8FE8EEF0E080818B7780830E94AF
:1009E0002008CE010E940E0625C08091840181322C
:1009F00009F5E8EEF0E08081877F80830E9420087F
:100A00008091860190918701998B888BCE010E94FD
:100A10000E0610C080918401813261F4E8EEF0E0AE
:100A20008081877F80830E942008CE0160918601AB
:100A30000E940E06DF91CF910895CF93DF93EC01D2
:100A40004096E82FF92F8BE0DF011D928A95E9F798
:100A500082E08C83898783E08E87CE01019661E0F6
:100A60000E94C307882369F0CE01069661E00E94C8
:100A7000C307882341F0CE010B9661E00E94C307B3
:100A800003C080E001C080E0DF91CF910895FC01B8
:100A900080918301843099F484899589A689B789E6
:100AA0000097A105B10569F081818F708093E900FD
:100AB000CB01BA0140E050E00E940F06089582E0A9
:100AC000089582E0089520918301243021F5FC01EE
:100AD00044895589668977894115510561057105F4
:100AE000E1F081818F708093E9008091F20088238A
:100AF000B1F0E8EEF0E0808190819E77908385FDF3
:100B000010C00E944508882369F4E8EEF0E0908167
:100B10009E779083089582E0089582E0089580E0B2
:100B2000089580E00895209183012430A1F4FC0110
:100B30004489558966897789411551056105710593
:100B400051F021812F702093E9002091E80020FFCF
:100B500002C00E946305089520918301243011F59D
:100B6000FC014489558966897789411551056105DC
:100B70007105D9F086818F708093E9008091E8003B
:100B800082FF16C08091F200882341F4E8EEF0E085
:100B900080818B77808380E090E008958091F200DF
:100BA00090E0089580E090E0089580E090E008955E
:100BB00080E090E00895FC0180918301843029F564
:100BC0004489558966897789411551056105710503
:100BD000F9F086818F708093E9008091E80082FFB0
:100BE0001AC08091F200882321F08091F10090E0FA
:100BF00002C08FEF9FEF2091F200222371F4E8EE04
:100C0000F0E020812B77208308958FEF9FEF0895E8
:100C10008FEF9FEF08958FEF9FEF089508957F92D4
:100C20008F929F92AF92BF92CF92DF92EF92FF92FC
:100C30000F931F93CF93DF93EC018B014A010E9426
:100C40004508782E882309F042C08114910449F0A8
:100C5000F40180819181081B190B7E01E80EF91EB9
:100C600001C07E010115110591F1CC24DD24C8EEEF
:100C7000D0E00F2EF1EFAF2EBB24F02D888185FD43
:100C800017C088818E7788838114910461F0F40104
:100C900080819181C80ED91ED182C0820F2EF5E0CD
:100CA0007F2EF02D14C00E944508882359F00EC0F5
:100CB000F70181917F01F501808301501040089474
:100CC000C11CD11C01151105C9F601C0782E872D54
:100CD000DF91CF911F910F91FF90EF90DF90CF9018
:100CE000BF90AF909F908F907F9008950F931F9328
:100CF000CF93DF9320918A0130918B01261737071C
:100D000058F06115710539F4E8EEF0E020812E7796
:100D100020839B0101C09B01E0E0A8EEB0E062EF00
:100D200070E011E000E0C1EFD0E032C040918301FB
:100D3000442309F441C0453009F440C04C9143FDBF
:100D40003FC04C9142FD31C04C9140FF21C0FB019E
:100D5000408150E02115310599F04830510580F46B
:100D6000E82FF92F819188838E2F9F2F21503040BB
:100D70004F5F5F4F2115310519F04830510591F74C
:100D8000E12F4830510509F0E02F4C914E774C93FC
:100D90002115310559F6EE2349F607C080918301EC
:100DA000882381F0853019F40FC0E8EEF0E08081EF
:100DB00082FFF4CF80E009C082E007C083E005C075
:100DC00081E003C082E001C083E0DF91CF911F91F9
:100DD0000F910895EF92FF921F93CF93DF9320918D
:100DE0008A0130918B012617370758F0611571057C
:100DF00039F4E8EEF0E020812E7720839B0101C0DA
:100E00009B01E82FF92F10E0A8EEB0E042EF50E090
:100E100061E070E00F2EF1EFEF2EFF24F02D2FC0D8
:100E200080918301882309F43EC0853009F43DC0D8
:100E30008C9183FD3CC08C9182FD2EC08C9180FFF3
:100E40001EC0EA01888190E02115310581F08830CB
:100E5000910568F41491E7011883319621503040D0
:100E600001962115310519F08830910599F7162F53
:100E70008830910509F0172F8C918E778C9321156E
:100E8000310571F6112361F607C080918301882333
:100E900081F0853019F40FC0E8EEF0E0808182FF28
:100EA000F4CF80E009C082E007C083E005C081E0A4
:100EB00003C082E001C083E0DF91CF911F91FF90DA
:100EC000EF9008958F929F92BF92CF92DF92EF9210
:100ED000FF920F931F93CF93DF93D62E8530C8F1E7
:100EE00026C0492F4F70EB014883891731F0E40188
:100EF000E8805081E901F88003C05B2DED2CFC2CCB
:100F000051FF12C04C914E7F4C9340814D7F4083E6
:100F10004C9141604C93E401E8825083E901F882EE
:100F2000E8014881442344F49F5F9530D1F68F70E7
:100F30008093E90081E001C080E0DF91CF911F91B3
:100F40000F91FF90EF90DF90CF90BF909F908F9088
:100F50000895982F9F709093E900982F542FE62EB4
:100F6000FF24ABEEB0E0EDEEF0E00F2EFCEE8F2EA6
:100F70009924F02D20EF30E00EEE10E069EE70E0E5
:100F8000B42ECC24BDCFBF92CF92DF92EF92FF92CE
:100F90000F931F93CF93DF93062F662309F441C06D
:100FA000C82FD92F10E0FF24CC24DD246894C3F887
:100FB000BB246894B1F80F2EF6E0EF2EF02D988147
:100FC000992349F16B81E981FA812C81892F8F70F6
:100FD000853048F56295660F660F607C991F9927EA
:100FE000991F692B223010F04E2D01C04B2DE93096
:100FF000F10548F096019F2D9F5F220F331F2E179A
:101000003F07D0F301C09F2D9295907F492B0E94FE
:101010006207882351F01F5F2596101781F681E043
:1010200005C081E003C080E001C080E0DF91CF9186
:101030001F910F91FF90EF90DF90CF90BF90089598
:10104000809184018823B4F405C0809183018823B2
:1010500019F40895E8EEF0E0808182FFF6CFE8EE23
:10106000F0E080818B7780830895809183018823CD
:1010700019F40895E8EEF0E0808180FFF6CFE8EE05
:10108000F0E080818E77808308950F931F93CF9334
:10109000DF932091E4003091E50065E6ECEEF0E0AE
:1010A000A8EEB0E00BEE10E044EE50E001C09C0171
:1010B000808180FF25C08C9180FD14C080918301C8
:1010C000882391F0853091F0E801888185FD10C07A
:1010D000EA01888199812817390751F3615039F75E
:1010E00084E009C080E007C082E005C083E003C05F
:1010F00081E001C080E0DF91CF911F910F910895B1
:101100008C9182FFDBCFF6CF0E94C5080E94C808F1
:10111000E8EDF0E080818F77808380818068808334
:1011200080818F7D808384E089BD86E089BD09B49C
:1011300000FEFDCF1092830110927F011092810179
:101140001092800180E060E042E00E946207E1EEE0
:10115000F0E080818E7F8083E2EEF0E0808181602C
:101160008083808188608083E0EEF0E080818E7FE4
:1011700080830895E3E6F0E080818E7F808381E0C4
:10118000809382010E94840808951092E2000895DD
:101190001092E10008951F920F920FB60F92112442
:1011A0002F933F934F935F936F937F938F939F936F
:1011B000AF93BF93EF93FF938091E10082FF0BC049
:1011C0008091E20082FF07C0E1EEF0E080818B7F3A
:1011D00080830E94390B8091E10080FF16C08091CE
:1011E000E20080FF12C0E2EEF0E080818E7F80831B
:1011F000808180618083E8EDF0E08081806280837F
:1012000019BC109283010E94E10C8091E10084FFDF
:1012100030C08091E20084FF2CC084E089BD86E06C
:1012200089BD09B400FEFDCFE8EDF0E080818F7D3F
:101230008083E1EEF0E080818F7E8083E2EEF0E05B
:1012400080818F7E808380818160808380917F0117
:10125000882321F084E08093830109C08091E3001A
:1012600087FF02C084E001C081E0809383010E9477
:10127000E00C8091E10083FF25C08091E20083FFB4
:1012800021C0E1EEF0E08081877F808382E080935F
:10129000830110927F0180818E7F8083E2EEF0E0F7
:1012A00080818E7F808380818061808380E060E0A8
:1012B00042E00E946207E0EFF0E080818860808376
:1012C0000E94390BFF91EF91BF91AF919F918F9148
:1012D0007F916F915F914F913F912F910F900FBE32
:1012E0000F901F9018951F920F920FB60F92112416
:1012F000FF920F931F932F933F934F935F936F939F
:101300007F938F939F93AF93BF93CF93DF93EF938D
:10131000FF938091E9000F2EFFE0FF2EF02DF822C1
:101320008091EC0009EE10E0F8011082C0EFD0E0EF
:101330008881877F888378940E94BA09F801108297
:10134000888188608883F082FF91EF91DF91CF914F
:10135000BF91AF919F918F917F916F915F914F91CD
:101360003F912F911F910F91FF900F900FBE0F9003
:101370001F9018950F931F93CF93DF93CDB7DEB7D0
:10138000AC970FB6F894DEBF0FBECDBFE4E8F1E036
:10139000CF010896A1EFB0E02C912193E817F9074F
:1013A000D9F70E94E70C8091E80083FF43C1909138
:1013B000840180918501853009F484C0863040F431
:1013C0008130C9F1813070F0833009F033C133C00E
:1013D000883009F4FAC0893009F408C1863009F070
:1013E00029C195C0903821F0923809F023C108C076
:1013F0008091800190918101992371F082600CC0ED
:10140000809188018F708093E9009091EB0081E0DA
:1014100095FF80E01092E900E8EEF0E09081977F80
:101420009083A1EFB0E08C931C9280818E778083B3
:101430000E942008FFC0992309F40BC1923009F0E3
:10144000F9C080918601882341F032C091E0833059
:1014500009F090E0909381012BC0809188018F70FA
:1014600009F4E8C0982F9F709093E9009091EB00E9
:1014700090FF1EC090918501933031F4EBEEF0E0C7
:1014800080818062808314C0EBEEF0E090819061F7
:10149000908321E030E0A90102C0440F551F8A95D6
:1014A000E2F7AAEEB0E04C931C92808188608083C2
:1014B0001092E900E8EEF0E08081877F80830E944F
:1014C0002008B8C0992309F0B5C0009186010F77B4
:1014D000E3EEF0E080818078802B8083E8EEF0E01E
:1014E0008081877F80830E942008E8EEF0E0808181
:1014F00080FFFDCFE3EEF0E08081806880830023F1
:1015000011F083E001C082E08093830193C0905882
:10151000923008F08FC0809186019091870153E04E
:101520008C3D9507C1F583E08C838AE28B836FB78E
:10153000F894DE01159680E090E04EE051E2E42F51
:10154000F0E050935700249180FF03C022952F7044
:101550004F5F2F702A3020F030E0295C3F4F03C0EE
:1015600030E0205D3F4F2D933D93019684319105EE
:1015700031F76FBF08EE10E0F8018081877F80832C
:10158000CE0103966AE270E00E947606F80180813F
:101590008B7780834FC060918801AE014F5F5F4FB2
:1015A0000E94540CBC01009709F444C008EE10E0FE
:1015B000F8018081877F808389819A810E94EA0671
:1015C000F80180818B77808335C0903899F5E8EEFB
:1015D000F0E08081877F808380917F018093F1009C
:1015E00080818E7780830E94200824C0992311F582
:1015F000809186018230F0F4E8EEF0E08081877F10
:1016000080838091860180937F010E9420088091D1
:101610007F01882321F084E08093830109C08091B9
:10162000E30087FF02C084E001C081E08093830172
:101630000E94E20C8091E80083FF10C0E8EEF0E029
:101640008081877F8083EBEEF0E080818062808301
:1016500005C090918601913069F7F8CEAC960FB62F
:10166000F894DEBF0FBECDBFDF91CF911F910F91D8
:1016700008950895CF93809183018823B1F0C0919C
:10168000E900CF708091EC0080FF02C080E801C0CB
:1016900080E0C82B1092E9008091E80083FF02C02F
:1016A0000E94BA09CF70C093E900CF9108950E94BB
:1016B000A9000E94CC0B0E9486018AE992E06CE8A6
:1016C00072E00E940D030E94880C0E944D0C7894D9
:1016D0000895CF93DF9300D0CDB7DEB70E94570BAC
:1016E00080E011E003E001C084E08230D1F083307B
:1016F00030F4882381F0813009F048C01AC083306B
:1017000011F1843009F042C028C00E949F0C0E9451
:10171000A60C009749F70E942E038823B1F382E0BC
:10172000E4CF10937C0180917C018823E1F7812F25
:10173000DCCF0E94DA0B0E94500C0E942E038823FB
:10174000E1F7802FD2CF0E94DD0B0E94520C0E9445
:101750002E038823E1F3812FC8CF1A820E949F0CA9
:101760000E94A60C009769F01982CE0101960E9492
:10177000B20C882331F08981BE016E5F7F4F0E94D9
:10178000CE008A81882351F380E0AFCF0E94DD0B29
:101790000E94520C0000FECF469847982D982C9836
:1017A0003E9A3F9A259A249A87E080936E0083E0C0
:1017B00085BD089510921801089581E08093180165
:1017C000469847982D982C980895662331F4EEE6B4
:1017D000F0E090819D7F908307C0609567BDEEE645
:1017E000F0E090819260908380937E01089566235B
:1017F00031F4EEE6F0E090819B7F908307C0609526
:1018000068BDEEE6F0E090819460908380937D0166
:1018100008951F920F920FB60F9211244698479881
:101820002D982C980F900FBE0F901F9018951F9217
:101830000F920FB60F9211248F9380911801882375
:1018400059F480917E01882311F4469A05C0809155
:101850007E01813009F4479A8F910F900FBE0F904F
:101860001F9018951F920F920FB60F9211248F930D
:1018700080911801882359F480917D01882311F407
:101880002D9A05C080917D01813009F42C9A8F91A9
:101890000F900FBE0F901F9018953A9A429A089594
:1018A00042980895429A0895923049F0933061F039
:1018B000913001F180E090E0E0E0F0E024C08EE3C0
:1018C00090E0E4ECF0E01FC0813051F0813018F07E
:1018D0008230A9F40AC0E0ECF0E0849190E013C0FB
:1018E000E8EAF0E0849190E00EC0E4E7F0E0849153
:1018F00090E009C082E190E0E2E0F1E004C080E025
:1019000090E0E0E0F0E0DA011196FC93EE930895A8
:1019100084B7877F84BF88E10FB6F8948093600016
:10192000109260000FBE90E080E80FB6F8948093AC
:101930006100909361000FBE0E94BA0808958BE188
:1019400091E00E9493050E943A0B089580918301D3
:10195000843029F48BE191E00E94AC05089580E089
:1019600090E00895CF93DF93EC0180918301843060
:1019700049F48BE191E00E94DB0599232CF08883E8
:1019800081E003C080E001C080E0DF91CF91089545
:101990009C01462F80918301843071F48BE191E0AA
:1019A000B90150E00E944705882341F48BE191E0A2
:1019B0000E94630581E0089580E0089580E0089525
:1019C000089508958BE191E00E941D0508958BE133
:1019D00091E00E94750408955527002480FF02C0FD
:1019E000060E571F660F771F6115710521F096953A
:1019F0008795009799F7952F802D0895FF27EE275B
:101A0000BB27AA2760FF04C0A20FB31FE41FF51F66
:101A1000220F331F441F551F96958795779567951D
:101A200089F70097760771F7CF01BD010895AA1BCA
:101A3000BB1B51E107C0AA1FBB1FA617B70710F0B9
:101A4000A61BB70B881F991F5A95A9F780959095EB
:101A5000BC01CD01089597FB092E07260AD077FD1A
:101A600004D0E5DF06D000201AF4709561957F4F11
:101A70000895F6F7909581959F4F089597FB092E4D
:101A800005260ED057FD04D014D00AD0001C38F41F
:101A900050954095309521953F4F4F4F5F4F08959A
:101AA000F6F790958095709561957F4F8F4F9F4F7A
:101AB0000895A1E21A2EAA1BBB1BFD010DC0AA1F8F
:101AC000BB1FEE1FFF1FA217B307E407F50720F0A7
:101AD000A21BB30BE40BF50B661F771F881F991F22
:101AE0001A9469F760957095809590959B01AC016B
:101AF000BD01CF010895CF93DF93AC0182309105F2
:101B000010F442E050E0E0919501F091960120E060
:101B100030E0A0E0B0E024C0808191818417950777
:101B2000D0F08417950771F482819381109729F082
:101B300013969C938E9312972CC09093960180934A
:101B4000950127C02115310519F08217930718F464
:101B50009C01BD01EF0192818381DF01E92FF82F04
:101B60003097D1F621153105F9F0C901841B950B89
:101B70008430910580F48A819B816115710521F083
:101B8000FB019383828304C0909396018093950117
:101B9000FE01329642C0FE01E80FF91F41935193B6
:101BA00002979983888339C0809193019091940121
:101BB000009741F4809138019091390190939401FC
:101BC0008093930120913601309137012115310521
:101BD00041F42DB73EB780913A0190913B01281B0B
:101BE000390BE0919301F0919401E217F30798F417
:101BF0002E1B3F0B2417350770F0CA0102962817D9
:101C0000390748F08E0F9F1F9093940180939301A2
:101C10004193519302C0E0E0F0E0CF01DF91CF911A
:101C200008950F931F93CF93DF939C01009709F4BE
:101C30008CC0DC01129713961C921E921297609131
:101C40009501709196016115710589F48D919C91B2
:101C50001197820F931F20919301309194012817BF
:101C6000390769F5B0939401A09393016EC0FB010D
:101C700040E050E001C0FC01EA17FB0730F482812C
:101C80009381AF010097B9F71FC0E9012297FB8349
:101C9000EA8308811981C901800F911F8E179F0760
:101CA00059F480819181800F911F029699838883D6
:101CB000828193819B838A834115510529F4B093D6
:101CC0009601A093950141C0FA01B383A283C1910B
:101CD000D191EC0FFD1FAE17BF0781F4F90192916E
:101CE00082918C0F9D1F0296DA0111969C938E9320
:101CF0008281938113969C938E931297E0E0F0E09B
:101D000002C0FB01BC01DB0112968D919C911397DF
:101D10000097B9F7CB0102962D913C911197820F54
:101D2000931F20919301309194012817390769F48A
:101D3000309729F4109296011092950102C01382F7
:101D400012827093940160939301DF91CF911F9160
:101D50000F910895DC01CB01FC01F999FECF06C07B
:101D6000F2BDE1BDF89A319600B40D924150504059
:101D7000B8F70895DC01CB0103C02D910E94C50E78
:101D800041505040D0F70895262FF999FECF1FBA41
:101D900092BD81BD20BD0FB6F894FA9AF99A0FBE94
:081DA00001960895F894FFCFAD
:101DA800E01F7D007D00A120000000000200A101CD
:101DB800000000000000E01F01E01F008310000089
:101DC800010410000001820800000100000000006A
:0C1DD80000000000000000009701200047
:00000001FF
