:100000000C948A000C94C5050C941F060C94A70050
:100010000C94A7000C94A7000C94A7000C94A700C4
:100020000C94A7000C94A7000C94A7000C94900BC0
:100030000C94380C0C94A7000C94A7000C94A70007
:100040000C94A7000C94A7000C94A0050C94DC0E53
:100050000C94F70E0C94CE0E0C94A7000C94A700F1
:100060000C94A7000C94A7000C94A7000C94A70074
:100070000C94A7001C034C00580052006F00620053
:100080006F007400690063007300200041006E007F
:100090007400770065006900670068007400200044
:1000A000450053004300000018034C005800520064
:1000B0006F0062006F00740069006300730000004D
:1000C0000403090409023E00020100C032090400D1
:1000D00000010202010005240010010424020605AB
:1000E00024060001070582030800FF09040100023D
:1000F0000A0000000705040210000507058302102E
:1001000000051201100102000008EB034420010069
:100110000102DC0111241FBECFEFD4E0DEBFCDBF52
:1001200011E0A0E0B1E0E2E3F3E202C005900D923D
:10013000AC33B107D9F711E0ACE3B1E001C01D92D7
:10014000A43EB107E1F70E942E0E0C9497110C9477
:10015000000081EC91E060E070E04FE150E00E942F
:100160006F118091C1018F3FC1F41092C1011092B3
:10017000C2018AE08093C3011092C4018AEF809388
:10018000C5011092C6018093C70181EC91E060E047
:1001900070E04FE150E00E947F1108950F931F938C
:1001A000CF93DF93CDB7DEB728970FB6F894DEBFB5
:1001B0000FBECDBF8B0190914F01943009F467C001
:1001C000953060F4913009F450C09130D0F0923005
:1001D00009F451C0933009F09FC153C0973009F41E
:1001E00068C0983038F4953009F457C0963009F05B
:1001F00093C159C0983009F470C0993009F08CC18E
:1002000080C080933C0180913C01882331F581E0DE
:10021000DB018C93FE01329697E0DF011D929A95E7
:10022000E9F78A838091C201882311F482E08B83ED
:100230008091C3018C838091C4018D838091C5011D
:100240008E838091C6018F838091C7018887CE01FC
:10025000029667E00E948D0F61C180913C01813060
:1002600009F05CC180934F0159C180933D0182E048
:1002700080934F0153C180933E0183E080934F01EF
:100280004DC180933F0184E080934F0147C180932B
:10029000400185E080934F0141C18093410186E098
:1002A00080934F013BC18093420187E080934F01CF
:1002B00035C190915001E92FF0E0EF5AFE4F808355
:1002C000892F8F5F80935001843009F027C11092ED
:1002D000500188E080934F0121C190915001E92F96
:1002E000F0E0EB5AFE4F8083892F8F5F809350019F
:1002F000843009F013C11092500189E080934F01BE
:100300000DC190915001E92FF0E0E75AFE4F808334
:10031000892F8F5F80935001843009F0FFC01092C5
:10032000500110924F0180913D0181FF03C0109256
:10033000C20103C081E08093C20180913E0180939D
:10034000C30180913F018093C4018091400180935B
:10035000C501809141018093C60180914201809343
:10036000C7014091510150E060E070E0742F6627B2
:10037000552744278091520190E0A0E0B0E0DC01D5
:1003800099278827840F951FA61FB71F2091540116
:10039000820F911DA11DB11D4091530150E060E0FD
:1003A00070E0762F652F542F4427840F951FA61FCA
:1003B000B71F8093C8019093C901A093CA01B0935D
:1003C000CB014091590150E060E070E0742F662746
:1003D0005527442780915A0190E0A0E0B0E0DC016D
:1003E00099278827840F951FA61FB71F20915C01AE
:1003F000820F911DA11DB11D40915B0150E060E095
:1004000070E0762F652F542F4427840F951FA61F69
:10041000B71F8093CC019093CD01A093CE01B093F0
:10042000CF018091CC019091CD01A091CE01B091EE
:10043000CF018093D0019093D101A093D201B093CA
:10044000D3014091550150E060E070E0742F6627C1
:10045000552744278091560190E0A0E0B0E0DC01F0
:1004600099278827840F951FA61FB71F2091580131
:10047000820F911DA11DB11D4091570150E060E018
:1004800070E0762F652F542F4427840F951FA61FE9
:10049000B71F8093D4019093D501A093D601B09358
:1004A000D7018091CC019091CD01A091CE01B09166
:1004B000CF018093D8019093D901A093DA01B09332
:1004C000DB018091CC019091CD01A091CE01B09142
:1004D000CF01B095A095909581959F4FAF4FBF4F9D
:1004E0008093DC019093DD01A093DE01B093DF01E6
:1004F0000E94E40281EC91E060E070E04FE150E0A6
:100500000E947F1181E0F80180838983CE010196EA
:1005100061E00E948D0F02C010924F0128960FB625
:10052000F894DEBF0FBECDBFDF91CF911F910F9129
:100530000895CF92DF92EF92FF920F931F93CF9384
:10054000DF93CDE5D1E0CE0164E04DE750E00E94BD
:100550001705CE01049664E04DE750E00E941705B0
:1005600085E691E040E450EC6FEF7FEF0FEB1FEF7B
:100570002FEF3FEF0F2EFFEBCF2EFFEFDF2EFFEF22
:10058000EF2EFFEFFF2EF02D0E94E40681E791E0B1
:1005900040E050E0BA010FEB1FEF2FEF3FEF0F2EBF
:1005A000F1E4CF2EF0E0DF2EF0E0EF2EF0E0FF2EB2
:1005B000F02D0E94E406DF91CF911F910F91FF90E3
:1005C000EF90DF90CF900895CF92DF92EF92FF925D
:1005D0000F931F934091C8015091C9016091CA01C6
:1005E0007091CB010091CC011091CD012091CE01F1
:1005F0003091CF01C090D001D090D101E090D201D4
:10060000F090D30185E691E00E94E4064091D40188
:100610005091D5016091D6017091D7010091D80118
:100620001091D9012091DA013091DB01C090DC01F9
:10063000D090DD01E090DE01F090DF0181E791E0F4
:100640000E94E4061F910F91FF90EF90DF90CF90F2
:100650000895959587959595879595958795959501
:100660008795959587958F3F910519F014F08FEF39
:1006700090E0992314F480E090E008950F931F9385
:10068000CF93DF938091B101882309F46FC0CDE54A
:10069000D1E0CE010E946205909303018093020194
:1006A000CE0104960E946205909305018093040197
:1006B0001092B1016091C4012091000130910101BB
:1006C00040910201509103018DE791E070E000E05C
:1006D00010E00E9479064091C5010091000110913F
:1006E0000101609102017091030185E891E050E001
:1006F00020E030E00E9479066091C601209100015F
:100700003091010140910401509105018DE891E083
:1007100070E000E010E00E9479064091C70100916E
:10072000000110910101609104017091050185E9BA
:1007300091E050E020E030E00E9479068DE790E003
:100740002091020130910301AC01421B530B5093E5
:100750009E0140939D012091040130910501821B6F
:10076000930B9093A00180939F0140C1CDE5D1E010
:10077000CE010E9462058C01CE0104960E946205A2
:10078000EC018091C201882309F065C080910201CB
:100790009091030180179107A8F485E891E0B801D2
:1007A0000E94D8060E942903682F8091C3018617F2
:1007B00020F480E00E94AA0E19C080E060E00E9450
:1007C000AA0E14C08DE791E0B8010E94D8060E94DD
:1007D0002903682F8091C301861720F481E00E94CD
:1007E000AA0E04C081E060E00E94AA0E80E060E0F2
:1007F0000E94BC0E80910401909105018C179D0709
:10080000A8F485E991E0BE010E94D8060E94290360
:10081000682F8091C301861720F480E00E94BC0EEF
:10082000E5C080E060E00E94BC0EE0C08DE891E091
:10083000BE010E94D8060E942903682F8091C3013F
:10084000861720F481E00E94BC0ED0C081E060E0F9
:100850000E94BC0ECBC08091C201813009F0C6C09D
:1008600060919D0170919E01600F711F40919F01E9
:100870005091A0014C0F5D1F85E691E00E94FE069D
:10088000AB01BC01689414F8759567955795479529
:100890001694D1F71416150616061706F4F44F3FF2
:1008A00051056105710529F024F04FEF50E060E03B
:1008B00070E08091C30190E0A0E0B0E0841795075C
:1008C000A607B7072CF480E0642F0E94AA0E2BC065
:1008D00080E060E00E94AA0E26C041308FEF5807EA
:1008E0008FEF68078FEF780724F441E05FEF6FEF39
:1008F0007FEF70956095509541955F4F6F4F7F4F9B
:100900008091C30190E0A0E0B0E084179507A607AE
:10091000B7072CF481E0642F0E94AA0E04C081E086
:1009200060E00E94AA0E60919D0170919E01600F8F
:10093000711F40919F015091A0014C0F5D1F81E7F5
:1009400091E00E94FE06AB01BC01689414F8759515
:100950006795579547951694D1F714161506160600
:100960001706F4F44F3F51056105710529F024F095
:100970004FEF50E060E070E08091C30190E0A0E0B4
:10098000B0E084179507A607B7072CF480E0642F22
:100990000E94BC0E2BC080E060E00E94BC0E26C00E
:1009A00041308FEF58078FEF68078FEF780724F4F7
:1009B00041E05FEF6FEF7FEF709560955095419547
:1009C0005F4F6F4F7F4F8091C30190E0A0E0B0E098
:1009D00084179507A607B7072CF481E0642F0E94BF
:1009E000BC0E04C081E060E00E94BC0EDF91CF919C
:1009F0001F910F91089521E0853F920748F4BC01B3
:100A00006A5F704081E691E00E9449050E943E03C2
:100A1000089521E0853F920748F4BC016A5F704069
:100A20008DE591E00E9449050E943E030895FF92E2
:100A30000F931F93CF93DF93EC01F62E8A01862F3D
:100A400090E0880F991F0E944010282F392F39837A
:100A500028832115310511F0FA8201C01A821B8208
:100A60008A81882381F040E0842F90E0880F991FCD
:100A700028813981820F931FFC01118300834F5F0E
:100A80008A81481788F3DF91CF911F910F91FF90D2
:100A90000895FC01208131812115310591F0838178
:100AA00090E0880F991F820F931FDC0111967C93B1
:100AB0006E93838190E00196628170E00E94F00F56
:100AC00083830895FC016281662371F00190F081B7
:100AD000E02D40E080E090E021913191820F931F62
:100AE0004F5F4617C9F702C080E090E070E00E94B7
:100AF000DC0F862F972F08959093A3018093A20176
:100B00007093A5016093A4018AB18C7F8AB98BB1DF
:100B100083608BB9E9E6F0E080818F6080838DB3DC
:100B200083608DBB109285001092840081E08093D9
:100B30006F0083E08093810008958091A80108955B
:100B40001F920F920FB60F9211248F93EF93FF9382
:100B50008091A101843160F41092A8011092A60145
:100B60001092A701E9E6F0E080818F60808303C0E6
:100B700081E08093A8011092A101FF91EF918F91E4
:100B80000F900FBE0F901F9018951F920F920FB6E7
:100B90000F9211242F933F934F935F936F937F9303
:100BA0008F939F93AF93BF93EF93FF938091A60191
:100BB000882389F480918400909185009093AA0104
:100BC0008093A901E9E6F0E080818E7F808381E057
:100BD0008093A60123C08091A6018130F9F4809111
:100BE0008400909185009093AC018093AB01E091DB
:100BF000A201F091A3012091A9013091AA01821BC9
:100C0000930B09958091A1018F5F8093A101E9E683
:100C1000F0E08081816080831092A601FF91EF91C6
:100C2000BF91AF919F918F917F916F915F914F9104
:100C30003F912F910F900FBE0F901F9018951F920C
:100C40000F920FB60F9211242F933F934F935F9300
:100C50006F937F938F939F93AF93BF93EF93FF9384
:100C60008091A701882389F4809184009091850068
:100C70009093AE018093AD01E9E6F0E080818B7F37
:100C8000808381E08093A70123C08091A7018130F8
:100C9000F9F480918400909185009093B001809345
:100CA000AF01E091A401F091A5012091AD01309137
:100CB000AE01821B930B09958091A1018F5F8093F8
:100CC000A101E9E6F0E08081846080831092A701B1
:100CD000FF91EF91BF91AF919F918F917F916F9114
:100CE0005F914F913F912F910F900FBE0F901F90EA
:100CF00018954F925F926F927F928F929F92AF92D0
:100D0000BF92CF92DF92EF92FF920F931F93CF93F8
:100D1000DF93EC01FB016A01EE24D7FCE094FE2C8A
:100D20004801AA2497FCA094BA2CC901AA2797FDD0
:100D3000A095BA2F24013501481A590A6A0A7B0A7C
:100D4000962D852D742D66278F01222717FD20955E
:100D5000322F26013701401A510A620A730A562DB2
:100D6000452D342D22270E940310288339834A837E
:100D70005B83C701B6010E94C30FDC01CB01881A57
:100D8000990AAA0ABB0A8C829D82AE82BF82DF9139
:100D9000CF911F910F91FF90EF90DF90CF90BF9078
:100DA000AF909F908F907F906F905F904F9008953D
:100DB000FC01CB0120813181B9010E94B10F248156
:100DC0003581820F931F0895CF92DF92EF92FF92A9
:100DD0000F931F93FC0140835183628373830483C9
:100DE000158326833783C086D186E286F3861F91DA
:100DF0000F91FF90EF90DF90CF900895CF92DF9208
:100E0000EF92FF920F931F93CF93DF93EC018A0130
:100E1000882777FD8095982F2C813D814E815F81B9
:100E20000E94C30FDC01CB01C880D980EA80FB801F
:100E3000C81AD90AEA0AFB0AB801882777FD809503
:100E4000982F288539854A855B850E94C30FDC0170
:100E5000CB01C81AD90AEA0AFB0A6C2D7D2D8E2D0A
:100E60009F2DDF91CF911F910F91FF90EF90DF9019
:100E7000CF900895CF93DF93EC018091E80083FF3A
:100E80009EC0888190E02091BD013091BE0128175D
:100E9000390709F094C08091BA01813269F0823239
:100EA00020F4803209F08BC037C0823209F462C06E
:100EB000833209F084C073C08091B901813A09F08E
:100EC0007EC0E8EEF0E08081877F8083808180FFB4
:100ED000FDCF4C895D896E897F89E1EFF0E0408329
:100EE000BB27A72F962F852F8083CB01AA27BB274F
:100EF0008083472F5527662777274083888D8083F7
:100F0000898D80838A8D8083E8EEF0E080818E7702
:100F100080830E94E50A53C08091B901813209F0B3
:100F20004EC0E8EEF0E08081877F808305C080912D
:100F3000B801882309F443C0808182FFF8CFE1EF34
:100F4000F0E030812081908180813C8B2D8B9E8BC5
:100F50008F8B8081888F8081898F80818A8FE8EE56
:100F6000F0E080818B7780830E94E50ACE010E94A9
:100F7000D30825C08091B901813209F5E8EEF0E08F
:100F80008081877F80830E94E50A8091BB019091D8
:100F9000BC01998B888BCE010E94D30810C0809130
:100FA000B901813261F4E8EEF0E08081877F8083CF
:100FB0000E94E50ACE016091BB010E94D308DF9137
:100FC000CF910895CF93DF93EC014096E82FF92F4E
:100FD0008BE0DF011D928A95E9F782E08C83898797
:100FE00083E08E87CE01019661E00E94880A882303
:100FF00069F0CE01069661E00E94880A882341F0DC
:10100000CE010B9661E00E94880A03C080E001C017
:1010100080E0DF91CF910895FC018091B801843088
:1010200099F484899589A689B7890097A105B105A6
:1010300069F081818F708093E900CB01BA0140E0B3
:1010400050E00E94D408089582E0089582E0089557
:101050002091B801243021F5FC0144895589668925
:1010600077894115510561057105E1F081818F7026
:101070008093E9008091F2008823B1F0E8EEF0E07F
:10108000808190819E77908385FD10C00E940A0B1D
:10109000882369F4E8EEF0E090819E7790830895CC
:1010A00082E0089582E0089580E0089580E0089548
:1010B0002091B8012430A1F4FC0144895589668946
:1010C0007789411551056105710551F021812F7016
:1010D0002093E9002091E80020FF02C00E94280828
:1010E00008952091B801243011F5FC0144895589F7
:1010F000668977894115510561057105D9F08681A9
:101100008F708093E9008091E80082FF16C0809183
:10111000F200882341F4E8EEF0E080818B77808351
:1011200080E090E008958091F20090E0089580E0E2
:1011300090E0089580E090E0089580E090E00895C8
:10114000FC018091B801843029F54489558966896C
:1011500077894115510561057105F9F086818F7018
:101160008093E9008091E80082FF1AC08091F2002C
:10117000882321F08091F10090E002C08FEF9FEF73
:101180002091F200222371F4E8EEF0E020812B7729
:10119000208308958FEF9FEF08958FEF9FEF0895BD
:1011A0008FEF9FEF089508957F928F929F92AF9255
:1011B000BF92CF92DF92EF92FF920F931F93CF9344
:1011C000DF93EC018B014A010E940A0B782E8823E1
:1011D00009F042C08114910449F0F40180819181A9
:1011E000081B190B7E01E80EF91E01C07E010115D6
:1011F000110591F1CC24DD24C8EED0E00F2EF1EFE3
:10120000AF2EBB24F02D888185FD17C088818E7795
:1012100088838114910461F0F40180819181C80E6A
:10122000D91ED182C0820F2EF5E07F2EF02D14C082
:101230000E940A0B882359F00EC0F70181917F01AB
:10124000F5018083015010400894C11CD11C011588
:101250001105C9F601C0782E872DDF91CF911F911E
:101260000F91FF90EF90DF90CF90BF90AF909F9045
:101270008F907F9008950F931F93CF93DF932091CA
:10128000BF013091C0012617370758F0611571056D
:1012900039F4E8EEF0E020812E7720839B0101C035
:1012A0009B01E0E0A8EEB0E062EF70E011E000E04A
:1012B000C1EFD0E032C04091B801442309F441C0ED
:1012C000453009F440C04C9143FD3FC04C9142FD74
:1012D00031C04C9140FF21C0FB01408150E02115FD
:1012E000310599F04830510580F4E82FF92F8191AC
:1012F00088838E2F9F2F215030404F5F5F4F2115E5
:10130000310519F04830510591F7E12F483051056A
:1013100009F0E02F4C914E774C932115310559F689
:10132000EE2349F607C08091B801882381F085300B
:1013300019F40FC0E8EEF0E0808182FFF4CF80E086
:1013400009C082E007C083E005C081E003C082E0FD
:1013500001C083E0DF91CF911F910F910895EF922B
:10136000FF921F93CF93DF932091BF013091C00173
:101370002617370758F06115710539F4E8EEF0E0EB
:1013800020812E7720839B0101C09B01E82FF92F3C
:1013900010E0A8EEB0E042EF50E061E070E00F2E08
:1013A000F1EFEF2EFF24F02D2FC08091B80188239C
:1013B00009F43EC0853009F43DC08C9183FD3CC0EA
:1013C0008C9182FD2EC08C9180FF1EC0EA01888125
:1013D00090E02115310581F08830910568F4149171
:1013E000E7011883319621503040019621153105CF
:1013F00019F08830910599F7162F8830910509F07A
:10140000172F8C918E778C932115310571F611234E
:1014100061F607C08091B801882381F0853019F406
:101420000FC0E8EEF0E0808182FFF4CF80E009C0D9
:1014300082E007C083E005C081E003C082E001C014
:1014400083E0DF91CF911F91FF90EF9008958F92ED
:101450009F92BF92CF92DF92EF92FF920F931F93D2
:10146000CF93DF93D62E8530C8F126C0492F4F7019
:10147000EB014883891731F0E401E8805081E901EC
:10148000F88003C05B2DED2CFC2C51FF12C04C9159
:101490004E7F4C9340814D7F40834C9141604C93F3
:1014A000E401E8825083E901F882E801488144239D
:1014B00044F49F5F9530D1F68F708093E90081E00E
:1014C00001C080E0DF91CF911F910F91FF90EF90CD
:1014D000DF90CF90BF909F908F900895982F9F702E
:1014E0009093E900982F542FE62EFF24ABEEB0E046
:1014F000EDEEF0E00F2EFCEE8F2E9924F02D20EF74
:1015000030E00EEE10E069EE70E0B42ECC24BDCFDA
:10151000BF92CF92DF92EF92FF920F931F93CF93E0
:10152000DF93062F662309F441C0C82FD92F10E09E
:10153000FF24CC24DD246894C3F8BB246894B1F85C
:101540000F2EF6E0EF2EF02D9881992349F16B8153
:10155000E981FA812C81892F8F70853048F5629559
:10156000660F660F607C991F9927991F692B22309F
:1015700010F04E2D01C04B2DE930F10548F09601D9
:101580009F2D9F5F220F331F2E173F07D0F301C0FF
:101590009F2D9295907F492B0E94270A882351F016
:1015A0001F5F2596101781F681E005C081E003C01A
:1015B00080E001C080E0DF91CF911F910F91FF90FB
:1015C000EF90DF90CF90BF9008958091B90188236C
:1015D000B4F405C08091B801882319F40895E8EEA9
:1015E000F0E0808182FFF6CFE8EEF0E080818B773B
:1015F000808308958091B801882319F40895E8EE56
:10160000F0E0808180FFF6CFE8EEF0E080818E7719
:10161000808308950F931F93CF93DF932091E4006D
:101620003091E50065E6ECEEF0E0A8EEB0E00BEE00
:1016300010E044EE50E001C09C01808180FF25C095
:101640008C9180FD14C08091B801882391F0853081
:1016500091F0E801888185FD10C0EA0188819981B7
:101660002817390751F3615039F784E009C080E049
:1016700007C082E005C083E003C081E001C080E0D4
:10168000DF91CF911F910F9108958C9182FFDBCF55
:10169000F6CF0E948A0B0E948D0BE8EDF0E080816E
:1016A0008F77808380818068808380818F7D808335
:1016B00084E089BD86E089BD09B400FEFDCF1092AB
:1016C000B8011092B4011092B6011092B50180E0F9
:1016D00060E042E00E94270AE1EEF0E080818E7F28
:1016E0008083E2EEF0E08081816080838081886089
:1016F0008083E0EEF0E080818E7F80830895E3E6D2
:10170000F0E080818E7F808381E08093B7010E942A
:10171000490B08951092E20008951092E100089597
:101720001F920F920FB60F9211242F933F934F9356
:101730005F936F937F938F939F93AF93BF93EF9339
:10174000FF938091E10082FF0BC08091E20082FF55
:1017500007C0E1EEF0E080818B7F80830E94FE0D68
:101760008091E10080FF16C08091E20080FF12C0EE
:10177000E2EEF0E080818E7F8083808180618083D3
:10178000E8EDF0E080818062808319BC1092B8019E
:101790000E94A60F8091E10084FF30C08091E2009A
:1017A00084FF2CC084E089BD86E089BD09B400FEB9
:1017B000FDCFE8EDF0E080818F7D8083E1EEF0E009
:1017C00080818F7E8083E2EEF0E080818F7E808357
:1017D0008081816080838091B401882321F084E03E
:1017E0008093B80109C08091E30087FF02C084E0C4
:1017F00001C081E08093B8010E94A50F8091E100B3
:1018000083FF25C08091E20083FF21C0E1EEF0E07C
:101810008081877F808382E08093B8011092B40139
:1018200080818E7F8083E2EEF0E080818E7F8083F6
:1018300080818061808380E060E042E00E94270A2E
:10184000E0EFF0E08081886080830E94FE0DFF91D0
:10185000EF91BF91AF919F918F917F916F915F9128
:101860004F913F912F910F900FBE0F901F901895A1
:101870001F920F920FB60F921124FF920F931F9396
:101880002F933F934F935F936F937F938F939F9388
:10189000AF93BF93CF93DF93EF93FF938091E900D2
:1018A0000F2EFFE0FF2EF02DF8228091EC0009EEC4
:1018B00010E0F8011082C0EFD0E08881877F888334
:1018C00078940E947F0CF801108288818860888358
:1018D000F082FF91EF91DF91CF91BF91AF919F91F6
:1018E0008F917F916F915F914F913F912F911F91B8
:1018F0000F91FF900F900FBE0F901F9018950F93B0
:101900001F93CF93DF93CDB7DEB7AC970FB6F894A4
:10191000DEBF0FBECDBFE9EBF1E0CF010896A1EF2E
:10192000B0E02C912193E817F907D9F70E94AC0F8A
:101930008091E80083FF43C19091B9018091BA0181
:10194000853009F484C0863040F48130C9F181309B
:1019500070F0833009F033C133C0883009F4FAC025
:10196000893009F408C1863009F029C195C0903842
:1019700021F0923809F023C108C08091B5019091FF
:10198000B601992371F082600CC08091BD018F7007
:101990008093E9009091EB0081E095FF80E0109248
:1019A000E900E8EEF0E09081977F9083A1EFB0E04E
:1019B0008C931C9280818E7780830E94E50AFFC001
:1019C000992309F40BC1923009F0F9C08091BB0151
:1019D000882341F032C091E0833009F090E0909389
:1019E000B6012BC08091BD018F7009F4E8C0982F1B
:1019F0009F709093E9009091EB0090FF1EC0909132
:101A0000BA01933031F4EBEEF0E0808180628083A4
:101A100014C0EBEEF0E090819061908321E030E023
:101A2000A90102C0440F551F8A95E2F7AAEEB0E063
:101A30004C931C928081886080831092E900E8EECC
:101A4000F0E08081877F80830E94E50AB8C09923F7
:101A500009F0B5C00091BB010F77E3EEF0E08081A3
:101A60008078802B8083E8EEF0E08081877F808320
:101A70000E94E50AE8EEF0E0808180FFFDCFE3EE12
:101A8000F0E0808180688083002311F083E001C052
:101A900082E08093B80193C09058923008F08FC0D4
:101AA0008091BB019091BC0153E08C3D9507C1F53D
:101AB00083E08C838AE28B836FB7F894DE011596FE
:101AC00080E090E04EE051E2E42FF0E050935700C8
:101AD000249180FF03C022952F704F5F2F702A3012
:101AE00020F030E0295C3F4F03C030E0205D3F4FE5
:101AF0002D933D9301968431910531F76FBF08EE28
:101B000010E0F8018081877F8083CE0103966AE22E
:101B100070E00E943B09F80180818B7780834FC081
:101B20006091BD01AE014F5F5F4F0E94190FBC0174
:101B3000009709F444C008EE10E0F8018081877F27
:101B4000808389819A810E94AF09F80180818B7717
:101B5000808335C0903899F5E8EEF0E08081877F8A
:101B600080838091B4018093F10080818E7780839F
:101B70000E94E50A24C0992311F58091BB018230AF
:101B8000F0F4E8EEF0E08081877F80838091BB01F4
:101B90008093B4010E94E50A8091B401882321F06A
:101BA00084E08093B80109C08091E30087FF02C000
:101BB00084E001C081E08093B8010E94A70F80916A
:101BC000E80083FF10C0E8EEF0E08081877F80832B
:101BD000EBEEF0E080818062808305C09091BB01D4
:101BE000913069F7F8CEAC960FB6F894DEBF0FBE11
:101BF000CDBFDF91CF911F910F9108950895CF939D
:101C00008091B8018823B1F0C091E900CF70809134
:101C1000EC0080FF02C080E801C080E0C82B109279
:101C2000E9008091E80083FF02C00E947F0CCF7022
:101C3000C093E900CF9108950E94A9000E94910EDF
:101C40000E94990289E095E06BEF74E00E947C05A8
:101C50000E944D0F0E94120F78940895CF93DF9346
:101C600000D0CDB7DEB70E941C0E80E011E003E08B
:101C700001C084E08230D1F0833030F4882381F0D9
:101C8000813009F048C01AC0833011F1843009F066
:101C900042C028C00E94640F0E946B0F009749F752
:101CA0000E949D058823B1F382E0E4CF1093B10137
:101CB0008091B1018823E1F7812FDCCF0E949F0E34
:101CC0000E94150F0E949D058823E1F7802FD2CF37
:101CD0000E94A20E0E94170F0E949D058823E1F327
:101CE000812FC8CF1A820E94640F0E946B0F009749
:101CF00069F01982CE0101960E94770F882331F096
:101D00008981BE016E5F7F4F0E94CE008A81882349
:101D100051F380E0AFCF0E94A20E0E94170F000087
:101D2000FECF469847982D982C983E9A3F9A259A30
:101D3000249A87E080936E0083E085BD0895109219
:101D40001801089581E080931801469847982D98CE
:101D50002C980895662331F4EEE6F0E090819D7FA3
:101D6000908307C0609567BDEEE6F0E090819260D9
:101D700090838093B3010895662331F4EEE6F0E09A
:101D800090819B7F908307C0609568BDEEE6F0E090
:101D90009081946090838093B20108951F920F9276
:101DA0000FB60F921124469847982D982C980F90B3
:101DB0000FBE0F901F9018951F920F920FB60F92A3
:101DC00011248F9380911801882359F48091B301D5
:101DD000882311F4469A05C08091B301813009F43B
:101DE000479A8F910F900FBE0F901F9018951F92DA
:101DF0000F920FB60F9211248F93809118018823B0
:101E000059F48091B201882311F42D9A05C0809174
:101E1000B201813009F42C9A8F910F900FBE0F9070
:101E20001F9018953A9A429A089542980895429AB6
:101E30000895923049F0933061F0913001F180E0E3
:101E400090E0E0E0F0E024C08EE390E0E4ECF0E02D
:101E50001FC0813051F0813018F08230A9F40AC0DF
:101E6000E0ECF0E0849190E013C0E8EAF0E08491C7
:101E700090E00EC0E4E7F0E0849190E009C082E1D8
:101E800090E0E2E0F1E004C080E090E0E0E0F0E02B
:101E9000DA011196FC93EE93089584B7877F84BF8F
:101EA00088E10FB6F89480936000109260000FBE36
:101EB00090E080E80FB6F894809361009093610001
:101EC0000FBE0E947F0B08958BE191E00E9458089D
:101ED0000E94FF0D08958091B801843029F48BE1B0
:101EE00091E00E947108089580E090E00895CF93FA
:101EF000DF93EC018091B801843049F48BE191E0EB
:101F00000E94A00899232CF0888381E003C080E020
:101F100001C080E0DF91CF9108959C01462F809110
:101F2000B801843071F48BE191E0B90150E00E9476
:101F30000C08882341F48BE191E00E94280881E09D
:101F4000089580E0089580E00895089508958BE154
:101F500091E00E94E20708958BE191E00E943A0728
:101F600008955527002480FF02C0060E571F660FF4
:101F7000771F6115710521F096958795009799F760
:101F8000952F802D0895FF27EE27BB27AA2760FFF6
:101F900004C0A20FB31FE41FF51F220F331F441FFD
:101FA000551F969587957795679589F700977607DA
:101FB00071F7CF01BD010895AA1BBB1B51E107C0FA
:101FC000AA1FBB1FA617B70710F0A61BB70B881FC9
:101FD000991F5A95A9F780959095BC01CD01089558
:101FE00097FB092E07260AD077FD04D0E5DF06D03F
:101FF00000201AF4709561957F4F0895F6F790953B
:1020000081959F4F089597FB092E05260ED057FD09
:1020100004D014D00AD0001C38F450954095309567
:1020200021953F4F4F4F5F4F0895F6F7909580955C
:10203000709561957F4F8F4F9F4F0895A1E21A2EA3
:10204000AA1BBB1BFD010DC0AA1FBB1FEE1FFF1F5C
:10205000A217B307E407F50720F0A21BB30BE40BAC
:10206000F50B661F771F881F991F1A9469F76095F3
:102070007095809590959B01AC01BD01CF010895AD
:10208000CF93DF93AC018230910510F442E050E031
:10209000E091E201F091E30120E030E0A0E0B0E067
:1020A00024C08081918184179507D0F0841795070B
:1020B00071F482819381109729F013969C938E93EB
:1020C00012972CC09093E3018093E20127C0211561
:1020D000310519F08217930718F49C01BD01EF0137
:1020E00092818381DF01E92FF82F3097D1F62115F6
:1020F0003105F9F0C901841B950B8430910580F4FA
:102100008A819B816115710521F0FB019383828394
:1021100004C09093E3018093E201FE01329642C035
:10212000FE01E80FF91F4193519302979983888329
:1021300039C08091E0019091E101009741F48091D4
:102140003801909139019093E1018093E001209151
:102150003601309137012115310541F42DB73EB7D5
:1021600080913A0190913B01281B390BE091E001ED
:10217000F091E101E217F30798F42E1B3F0B2417AF
:10218000350770F0CA0102962817390748F08E0FFC
:102190009F1F9093E1018093E0014193519302C00E
:1021A000E0E0F0E0CF01DF91CF9108950F931F930E
:1021B000CF93DF939C01009709F48CC0DC01129748
:1021C00013961C921E9212976091E2017091E301A6
:1021D0006115710589F48D919C911197820F931F60
:1021E0002091E0013091E1012817390769F5B0939A
:1021F000E101A093E0016EC0FB0140E050E001C0AE
:10220000FC01EA17FB0730F482819381AF0100974C
:10221000B9F71FC0E9012297FB83EA83088119817E
:10222000C901800F911F8E179F0759F480819181FA
:10223000800F911F029699838883828193819B836B
:102240008A834115510529F4B093E301A093E2017B
:1022500041C0FA01B383A283C191D191EC0FFD1F5C
:10226000AE17BF0781F4F901929182918C0F9D1FE7
:102270000296DA0111969C938E9382819381139634
:102280009C938E931297E0E0F0E002C0FB01BC014A
:10229000DB0112968D919C9113970097B9F7CB01B2
:1022A00002962D913C911197820F931F2091E0018E
:1022B0003091E1012817390769F4309729F4109219
:1022C000E3011092E20102C0138212827093E101D5
:1022D0006093E001DF91CF911F910F910895DC0190
:1022E000CB01FC01F999FECF06C0F2BDE1BDF89A21
:1022F000319600B40D9241505040B8F70895DC017A
:10230000CB0103C02D910E948A1141505040D0F75B
:102310000895262FF999FECF1FBA92BD81BD20BD29
:102320000FB6F894FA9AF99A0FBE01960895F894A8
:02233000FFCFDD
:10233200E01F7D007D00A120000000000200A1013D
:10234200000000000000E01F01E01F0083100000F9
:1023520001041000000182080000010000000000DA
:0C2362000000000000000000E40120006A
:00000001FF
