:107000004BC0000064C0000062C0000060C000000F
:107010005EC000005CC000005AC0000058C0000004
:1070200056C0000054C0000052C000003EC5000021
:107030004EC000004CC000004AC0000048C0000024
:1070400046C0000044C000003FC3000040C0000034
:107050003EC000003CC000003AC0000038C0000044
:1070600036C0000034C0000032C0000030C0000054
:107070002EC000002CC000002AC0000028C0000064
:1070800026C0000024C0000022C0000020C0000074
:107090001EC000001CC0000011241FBECFEFD4E0B2
:1070A000DEBFCDBF11E0A0E0B1E0E8E4FEE702C042
:1070B00005900D92A239B107D9F711E0A2E9B1E02C
:1070C00001C01D92A03AB107E1F733D0BBC698CFFB
:1070D00084E08093E9000DC08091E8008B77809375
:1070E000E80003C08EB3882359F08091E80082FF46
:1070F000F9CF8091E80085FFEFCF8091F1000895EE
:1071000080E0089593E09093E9009091E80095FD68
:107110000DC09091E8009E779093E80003C09EB365
:10712000992331F09091E80090FFF9CF8093F1001E
:1071300008952F923F924F925F926F927F928F921B
:107140009F92AF92BF92CF92DF92EF92FF920F93F6
:107150001F93DF93CF93CDB7DEB728970FB6F89480
:10716000DEBF0FBECDBF84B7877F84BF88E10FB677
:10717000F89480936000109260000FBE5F9A8FE3D6
:107180009CE90197F1F700C0000029B18091A001AE
:107190009091A101ECED82349E0711F027FF07C00A
:1071A0001092A1011092A001E0E0F0E0099584B7EF
:1071B000877F84BF88E10FB6F894809360001092B7
:1071C00060000FBE90E080E80FB6F89480936100F5
:1071D000909361000FBE11E015BF82E085BF56D4C9
:1071E00010936F0083E0809381007894A4E06A2E6E
:1071F000F3E08F2EDD24D394E5E07E2E79E0C72ED8
:107200004DC26092E9008091E80082FF46C260DFD3
:10721000182F853419F410920F0106C08857823058
:1072200010F0143519F454DF8DE00FC21035E1F37E
:107230001C34D1F3143721F484E464DF80E005C208
:10724000113611F489E501C2113411F541DF182F0F
:107250003FDF282F30E0220F331F442737FD4095B2
:10726000542F110F1C831B82EB80FC80C701AA27BF
:1072700097FDA095BA2F282B392B4A2B5B2B2093F7
:107280009201309393014093940150939501CCCF98
:10729000103711F483E5D9C1133569F480E091E02A
:1072A0007C01F70181917F012DDFF7E0EF16F1E01E
:1072B000FF06B9F7CBC1163521F481E323DF80E364
:1072C000C4C1133731F48AE81DDF85E91BDF8EE185
:1072D000BCC11536E9F480E090E0DC01FC0180924D
:1072E0005700E89507B600FCFDCF70925700E8956F
:1072F00007B600FCFDCF80589F4FAF4FBF4F803087
:1073000020E7920720E0A20720E0B20739F78CCFF0
:107310001C3649F4DDDE8095E1E0F0E0082EC092F5
:107320005700E89581CF123731F4E1E0F0E0C092E8
:10733000570084918AC1163431F4E0E0F0E0C09245
:107340005700849182C11E3431F4E3E0F0E0C09232
:10735000570084917AC1113531F4E2E0F0E0C09237
:107360005700849172C1123631F489E5CBDE80E09A
:10737000C9DE80E86AC1123419F0173609F0DEC0A0
:10738000A7DEA82EA5DEE82EA3DEB82E8554823017
:1073900008F05AC1AA821982FF2429813A81E22A7F
:1073A000F32A173609F048C031E130935700E895C9
:1073B00010E01701AB2CB12E3AC0E0909201F09092
:1073C000930100919401109195016A2D6634B9F4EE
:1073D000EB2DF0E0EE29FF29849194DEBB2069F0CB
:1073E000D801C7010296A11DB11D8093920190930F
:1073F0009301A0939401B0939501BD2415C0D801C9
:10740000C701B695A7959795879506D57BDED801D8
:10741000C7010296A11DB11D809392019093930123
:10742000A0939401B0939501089421083108211488
:10743000310409F0C2CF0AC120909201309093012B
:1074400040909401509095017B2D763409F060C0F6
:10745000F10180925700E89507B600FCFDCF58C0B7
:10746000FB2DF63459F5AA2029F1E0909201F09015
:10747000930100919401109195012ADE8E831D8263
:10748000892D90E02D813E81822B932BF7010C01F9
:10749000D0925700E8951124D801C7010296A11D8A
:1074A000B11D8093920190939301A0939401B093A6
:1074B000950102C00DDE982EAD2423C0E09092010C
:1074C000F090930100919401109195011695079504
:1074D000F794E794FDDD682FC701A6D4809192014F
:1074E00090919301A0919401B09195010296A11DF4
:1074F000B11D8093920190939301A0939401B09356
:1075000095012F8138852150304038872F8304C062
:107510009924AA24F886EF826F8178856115710518
:1075200009F09ECF7B2D763409F07ECEF10170926A
:107530005700E89507B600FCFDCF76CE133469F40A
:10754000E0909201F0909301C3DD90E0F7010C010F
:10755000D0925700E895112467CE1336A1F4E0903D
:107560009201F09093010091940110919501B0DD8A
:10757000F701E16090E00C01D0925700E8951124EA
:10758000D801C70133C01D3659F4E0919201F09142
:10759000930170925700E89507B600FCFDCF44CEEA
:1075A000123551F4E0919201F0919301A590B490BD
:1075B0008B2DA8DD8A2D49C0143421F5E09092016D
:1075C000F090930100919401109195011695079503
:1075D000F794E7947DDD682FC70126D4809192014E
:1075E00090919301A0919401B09195010296A11DF3
:1075F000B11D8093920190939301A0939401B09355
:10760000950112CE1436F1F4E0909201F0909301BE
:107610000091940110919501D801C701B695A795E5
:1076200097958795F9D36EDDD801C7010296A11D04
:10763000B11D8093920190939301A0939401B09314
:10764000950104C01B3111F08FE35CDD8092E900ED
:107650009091E8008091E8008E778093E80095FF94
:1076600004C010C08EB38823C1F08091E80080FF71
:10767000F9CF8091E8008E778093E80003C08EB345
:10768000882359F08091E80080FFF9CF6092E900EB
:107690008091E8008B778093E800A3D380910F015D
:1076A000882309F0AECD8091E00081608093E000F6
:1076B0002CE088E190E00FB6F894A89580936000E4
:1076C0000FBE20936000FFCF1F920F920FB60F9254
:1076D00011240F900FBE0F901F90189582E061EC5F
:1076E00042E06DD183E061E842E169D184E060E885
:1076F00042E165C180919801982F9F77913249F5B9
:10770000909199019032A1F0913219F5813A09F5E1
:107710008091E800877F8093E80088E091E067E04F
:1077200070E0B7D08091E8008B778093E8000895EF
:10773000813279F48091E800877F8093E80088E0C7
:1077400091E067E070E0FFD08091E8008E77809351
:10775000E8000895923029F0933041F0913061F4BF
:1077600010C02EE330E082E291E01EC0882371F069
:10777000813089F08230A1F020E030E080E090E0BC
:1077800013C022E130E080E191E00EC024E030E05F
:1077900080E691E009C028E130E084E691E004C091
:1077A00022E130E08EE791E0FA0191838083C90104
:1077B00008952F923F924F925F921B012C0107B6C2
:1077C00000FCFDCFF999FECF83E0F10180935700D3
:1077D000E89507B600FCFDCF81E180935700E8955E
:1077E0005F904F903F902F9008952F923F924F922D
:1077F0005F921B012C0107B600FCFDCFF999FECF6B
:1078000085E0F10180935700E89507B600FCFDCFB5
:1078100081E180935700E8955F904F903F902F90C3
:1078200008952F923F924F925F921B012C0107B651
:1078300000FCFDCFF999FECF81E0F1010A018093B0
:107840005700E89511245F904F903F902F90089536
:1078500021E2FC01209357008491089529E0FC0166
:107860002093570084910895E1E0F0E089E080934F
:1078700057008491089507B600FCFDCFF999FECF1B
:10788000809599E0E1E0F0E0082E90935700E895AC
:107890000895282F392FF90180919E0190919F0121
:1078A0008617970718F4BC0120E034C061157105F4
:1078B000D9F78091E8008E778093E800F5CF8EB3FA
:1078C0008823E9F18530B9F18091E80083FD35C066
:1078D0008091E80082FD29C08091E80080FF1AC0F5
:1078E0008091F20090E006C021912093F100615058
:1078F000704001966115710519F088309105A0F36B
:1079000021E08830910509F020E08091E8008E7731
:107910008093E8006115710591F6222381F605C078
:107920008EB3882361F0853061F08091E80082FF9A
:10793000F7CF80E0089583E0089581E0089582E024
:10794000089583E008956115710511F51CC02EB3EB
:10795000222389F1253059F12091E80023FD29C027
:107960002091E80022FFF3CFE82FF92F07C0809184
:10797000F1008193CF016150704029F0CF01209137
:10798000F2002223A1F72091E8002B772093E80052
:1079900061157105E1F605C08EB3882361F085306D
:1079A00061F08091E80080FFF7CF80E0089583E0E8
:1079B000089581E0089582E0089583E008958F702E
:1079C0008093E900EBEEF0E0808181608083EDEE52
:1079D000F0E010826093EC0040838091EE00881FFD
:1079E0008827881F08958091980187FF11C003C0E0
:1079F0008EB38823B1F08091E80082FFF9CF8091A7
:107A0000E8008B778093E80008958EB3882349F0CF
:107A10008091E80080FFF9CF8091E8008E77809315
:107A2000E80008953CD03ED08091D8008F778093B5
:107A3000D8008091D80080688093D8008091D800C9
:107A40008F7D8093D80084E089BD86E089BD09B42C
:107A500000FEFDCF1EBA1092960180E060E042E089
:107A6000AEDF8091E1008E7F8093E1008091E200A3
:107A700081608093E2008091E20088608093E20060
:107A80008091E0008E7F8093E0000895E3E6F0E0CF
:107A900080818E7F808381E080939701C3CF109295
:107AA000E20008951092E10008951F920F920FB620
:107AB0000F9211242F933F934F935F936F937F9374
:107AC0008F939F93AF93BF93EF93FF938091E100C8
:107AD00080FF16C08091E20080FF12C08091E2001A
:107AE0008E7F8093E2008091E20080618093E200CB
:107AF0008091D80080628093D80019BC1EBA70D1E2
:107B00008091E10084FF2CC08091E20084FF28C0B6
:107B100084E089BD86E089BD09B400FEFDCF809177
:107B2000D8008F7D8093D8008091E1008F7E809374
:107B3000E1008091E2008F7E8093E2008091E2007C
:107B400081608093E20080919601882321F48091E6
:107B5000E30087FF02C084E001C081E08EBB40D11A
:107B60008091E10083FF21C08091E20083FF1DC06E
:107B70008091E100877F8093E10082E08EBB1092CC
:107B800096018091E1008E7F8093E1008091E20078
:107B90008E7F8093E2008091E20080618093E2001A
:107BA00080E060E042E00BDF1BD1FF91EF91BF91DD
:107BB000AF919F918F917F916F915F914F913F9185
:107BC0002F910F900FBE0F901F9018951F93DF936A
:107BD000CF9300D0CDB7DEB7E8E9F1E08091F100B6
:107BE000819381E0E03AF807C9F784DD8091E800ED
:107BF00083FFE2C08091980190919901953009F43A
:107C00006CC0963040F4913069F1913070F093304F
:107C100009F0D2C027C0983009F4A1C0993009F406
:107C2000B0C0963009F0C8C07AC0803881F0823880
:107C300009F0C2C080919C018F708093E9009091FF
:107C4000EB0081E095FF80E01092E90001C080E048
:107C50009091E800977F9093E8008093F100109254
:107C6000F10088C0882319F0823009F0A5C08F7117
:107C7000823009F0A1C080919A01882341F52091BA
:107C80009C012F7009F498C02093E9008091EB00CB
:107C900080FF1DC080919901833021F48091EB0019
:107CA000806213C08091EB0080618093EB0081E0E3
:107CB00090E002C0880F991F2A95E2F78093EA00AE
:107CC0001092EA008091EB0088608093EB001092A4
:107CD000E9008091E800877F50C0882309F06CC0DC
:107CE00010919A011F778091E3008078812B809317
:107CF000E3008091E800877F8093E80074DE809144
:107D0000E80080FFFCCF8091E30080688093E3006F
:107D1000112311F083E001C082E08EBB4DC080587A
:107D2000823008F049C080919A0190919B01609146
:107D30009C01AE014F5F5F4F0DDDBC01009709F460
:107D40003BC08091E800877F8093E80089819A8119
:107D5000A0DD8091E8008B778093E8002DC080380B
:107D600059F58091E800877F8093E8008091960123
:107D70008093F1008091E8008E778093E80033DEF5
:107D80001BC08823C9F490919A019230A8F4809185
:107D9000E800877F8093E8009093960124DE80912D
:107DA0009601882321F48091E30087FF02C084E0DC
:107DB00001C081E08EBB92DC8091E80083FF0AC0A5
:107DC0008091E800877F8093E8008091EB008062DB
:107DD0008093EB000F900F90CF91DF911F9108954A
:107DE00008951F938EB38823A9F08091E9008F70C6
:107DF0009091EC0090FF02C010E801C010E0182B39
:107E00001092E9008091E80083FF01C0DFDE1F705F
:107E10001093E9001F910895F999FECF92BD81BD9D
:107E2000F89A992780B50895262FF999FECF1FBAA1
:107E300092BD81BD20BD0FB6F894FA9AF99A0FBE93
:087E400001960895F894FFCFAC
:107E48004C5546414344430000000000000008012F
:107E58001201100102000008EB034A200001010290
:107E6800000109023E0002010080320904000001FD
:107E78000202010005240010010424020005240662
:107E88000001070582030800FF09040100020A0037
:107E9800000007050402100005070583021000050D
:107EA8000403090418034400650061006E00200003
:107EB800430061006D00650072006100000012035C
:107EC8004C00550046004100200043004400430098
:027ED8000000A8
:107FA00008CC23CC3ECC54CC59CC5ECC64CC0895C8
:087FB000089508950895089555
:107FE000DFCFDFCFDFCFDFCFDFCFDFCFDFCFDFCF21
:087FF000DFCFDFCFDFCFDFCFD1
:087FF8000070000000DFFBDC5B
:040000030000700089
:00000001FF
